S00F00007362725F315F322E73726563AD
S11300000C949E0A0C948A100C94B1100C9441190F
S11300100C9441190C9441190C94C60A0C940A10BE
S11300200C94C60A0C94C60A0C94C60A0C94C60A0C
S11300300C94C60A0C94C60A0C94C60A0C94C60AFC
S11300400C94D8100C94C60A0C94080C0C94400C14
S11300500C94C60A0C94C60A0C94C60A0C94C60ADC
S11300600C94F41A0C94C60A001C041C041C041CF2
S1130070041C041C041C041C141B041C041C041C6D
S1130080041C041C041C041C141B041C041C041C5D
S1130090041C041C041C041C1C1B041C041C041C45
S11300A0041C041C041C041C421B041C041C041C0F
S11300B0041C041C041C041C1C1B041C041C041C25
S11300C0041C041C041C041C481B041C041C041CE9
S11300D0041C041C041C041C4E1B041C041C041CD3
S11300E0041C041C041C041C601B041C041C041CB1
S11300F0041C041C041C041C8A1B041C041C041C77
S1130100041C041C041C041C541B041C041C041C9C
S1130110041C041C041C041C6E1B041C041C041C72
S1130120041C041C041C041C8D1B041C041C041C43
S1130130041C041C041C041C8D1B041C041C041C33
S1130140041C041C041C041C8D1B041C041C041C23
S1130150041C041C041C041C8D1B041C041C041C13
S1130160041C041C041C041C961B041C041C041CFA
S1130170041C041C041C041CC71B041C041C041CB9
S1130180041C041C041C041C961B041C041C041CDA
S1130190041C041C041C041CC71B041C041C041C99
S11301A0041C041C041C041CAE1B041C041C041CA2
S11301B0041C041C041C041CCB1B041C041C041C75
S11301C0041C041C041C041CCB1B041C041C041C65
S11301D0041C041C041C041CE01B041C041C041C40
S11301E0041C041C041C041CFA1B041C041C041C16
S11301F0041C041C041C041CFA1B084AD73B3BCEF9
S1130200016E84BCBFFDC12F3D6C74319ABD568311
S11302103DDA3D00C77F11BED9E4BB4C3E916BAAC9
S1130220AABE000000803F00020000000800020196
S113023000000304070000000000000000010204A5
S11302400810204080010204081020010204081054
S1130250200404040404040404020202020202034B
S1130260030303030300000000250028002B000003
S1130270000000240027002A004649464F206F76DC
S11302806572666C6F7721002900444D5020496ED9
S1130290697469616C697A6174696F6E20666169F9
S11302A06C65642028636F64652000444D5020729F
S11302B065616479212057616974696E6720666F8E
S11302C07220666972737420696E746572727570D7
S11302D0742E2E2E00456E61626C696E6720696E05
S11302E07465727275707420646574656374696F83
S11302F06E202841726475696E6F2065787465722A
S11303006E616C20696E7465727275707420302928
S11303102E2E2E00456E61626C696E6720444D502E
S11303202E2E2E00496E697469616C697A696E6754
S113033020444D502E2E2E000A53656E6420616EAB
S1130340792063686172616374657220746F2062DE
S11303506567696E20444D502070726F6772616DDD
S11303606D696E6720616E642064656D6F3A20006C
S11303704D50553630353020636F6E6E6563746949
S11303806F6E206661696C6564004D50553630357A
S11303903020636F6E6E656374696F6E207375636E
S11303A06365737366756C0054657374696E672056
S11303B064657669636520636F6E6E656374696FE7
S11303C06E732E2E2E00496E697469616C697A69A8
S11303D06E672049324320646576696365732E2E07
S11303E02E004552524F522120444D5020636F64D9
S11303F06520766572696669636174696F6E2066EB
S113040061696C65642E004552524F522120444D5F
S11304105020636F6E66696775726174696F6E20D0
S1130420766572696669636174696F6E2066616975
S11304306C65642E00526573657474696E6720463A
S113044049464F20616E6420636C656172696E6712
S113045020494E5420737461747573206F6E652047
S11304606C6173742074696D652E2E2E005365744F
S113047074696E6720757020696E7465726E616C44
S11304802034322D62797465202864656661756C48
S1130490742920444D50207061636B65742062752B
S11304A0666665722E2E2E0044697361626C696EF5
S11304B06720444D502028796F75207475726E2022
S11304C06974206F6E206C61746572292E2E2E0063
S11304D0444D5020697320676F6F6420746F2067E8
S11304E06F212046696E616C6C792E0057726974B5
S11304F0696E672066696E616C206D656D6F7279D7
S11305002075706461746520372F37202866756EF6
S11305106374696F6E20756E6B6E6F776E292E2E05
S11305202E0043757272656E7420696E7465727202
S1130530757074207374617475733D0052656164E1
S1130540696E6720696E7465727275707420737455
S1130550617475732E2E2E0052656164696E672076
S11305604649464F20646174612E2E2E00437572F5
S113057072656E74204649464F20636F756E743DF4
S11305800057616974696E6720666F722046494638
S11305904F20636F756E74203E20322E2E2E005233
S11305A0656164696E672066696E616C206D656D56
S11305B06F72792075706461746520362F37202836
S11305C066756E6374696F6E20756E6B6E6F776E91
S11305D0292E2E2E0043757272656E7420696E7416
S11305E0657272757074207374617475733D005212
S11305F0656164696E6720696E7465727275707482
S1130600207374617475732E2E2E005265616469B3
S11306106E67204649464F20646174612E2E2E0079
S113062043757272656E74204649464F20636F7538
S11306306E743D0057616974696E6720666F72203D
S11306404649464F20636F756E74203E20322E2E2D
S11306502E0057726974696E672066696E616C203A
S11306606D656D6F72792075706461746520352FC6
S113067037202866756E6374696F6E20756E6B6EB5
S11306806F776E292E2E2E0057726974696E67205B
S113069066696E616C206D656D6F7279207570642A
S11306A061746520342F37202866756E6374696F12
S11306B06E20756E6B6E6F776E292E2E2E0057721C
S11306C06974696E672066696E616C206D656D6F13
S11306D072792075706461746520332F3720286621
S11306E0756E6374696F6E20756E6B6E6F776E29AD
S11306F02E2E2E00526573657474696E6720444D06
S1130700502E2E2E00456E61626C696E6720444D3A
S1130710502E2E2E00456E61626C696E672046492C
S1130720464F2E2E2E00526573657474696E6720D1
S11307304649464F2E2E2E0053657474696E672009
S11307407A65726F2D6D6F74696F6E206465746560
S11307506374696F6E206475726174696F6E20745E
S11307606F20302E2E2E0053657474696E67206DD1
S11307706F74696F6E20646574656374696F6E204D
S11307806475726174696F6E20746F2038302E2E18
S11307902E0053657474696E67207A65726F2D6DCF
S11307A06F74696F6E20646574656374696F6E201D
S11307B07468726573686F6C6420746F20313536A9
S11307C02E2E2E0053657474696E67206D6F7469E4
S11307D06F6E20646574656374696F6E20746872EB
S11307E06573686F6C6420746F20322E2E2E004364
S11307F0757272656E74204649464F20636F756E3C
S1130800743D0052656164696E67204649464F2015
S1130810636F756E742E2E2E005265736574746941
S11308206E67204649464F2E2E2E00577269746912
S11308306E672066696E616C206D656D6F727920DC
S113084075706461746520322F37202866756E6375
S113085074696F6E20756E6B6E6F776E292E2E2EF7
S11308600057726974696E672066696E616C206DE9
S1130870656D6F72792075706461746520312F37EE
S1130880202866756E6374696F6E20756E6B6E6F6B
S1130890776E292E2E2E0053657474696E67205866
S11308A02F592F5A206779726F206F6666736574AB
S11308B02054437320746F2070726576696F75736A
S11308C02076616C7565732E2E2E00436C65617203
S11308D0696E67204F54502042616E6B20666C61D4
S11308E0672E2E2E0053657474696E6720444D5034
S11308F020636F6E66696775726174696F6E2062DA
S113090079746573202866756E6374696F6E2075DB
S11309106E6B6E6F776E292E2E2E0053657474697C
S11309206E67206779726F2073656E736974697678
S113093069747920746F202B2F2D203230303020B1
S11309406465672F7365632E2E2E00536574746976
S11309506E6720444C50462062616E64776964740B
S11309606820746F203432487A2E2E2E005365741A
S113097074696E672065787465726E616C20667246
S1130980616D652073796E6320746F2054454D50FA
S11309905F4F55545F4C5B305D2E2E2E00536574B3
S11309A074696E672073616D706C65207261746523
S11309B020746F20323030487A2E2E2E0053657406
S11309C074696E6720444D5020616E642046494628
S11309D04F5F4F464C4F5720696E74657272757045
S11309E0747320656E61626C65642E2E2E005365EF
S11309F07474696E6720636C6F636B20736F7572B8
S1130A00636520746F205A204779726F2E2E2E0052
S1130A10537563636573732120444D5020636F6E77
S1130A2066696775726174696F6E20777269747430
S1130A30656E20616E642076657269666965642EF0
S1130A400020627974657320696E20636F6E666935
S1130A506720646566290057726974696E6720446B
S1130A604D5020636F6E66696775726174696F6E4D
S1130A7020746F204D5055206D656D6F7279206222
S1130A80616E6B7320280053756363657373212053
S1130A90444D5020636F6465207772697474656E89
S1130AA020616E642076657269666965642E002033
S1130AB06279746573290057726974696E6720449A
S1130AC04D5020636F646520746F204D5055206D28
S1130AD0656D6F72792062616E6B732028005265B8
S1130AE073657474696E6720493243204D61737471
S1130AF0657220636F6E74726F6C2E2E2E005365B8
S1130B007474696E6720736C61766520302061644B
S1130B10647265737320746F2030783638202873BC
S1130B20656C66292E2E2E0044697361626C696EB1
S1130B306720493243204D6173746572206D6F6480
S1130B40652E2E2E0053657474696E6720736C6174
S1130B5076652030206164647265737320746F203D
S1130B60307837462E2E2E005A206779726F206F08
S1130B706666736574203D200059206779726F2082
S1130B806F6666736574203D200058206779726F24
S1130B90206F6666736574203D2000526561646948
S1130BA06E67206779726F206F6666736574205470
S1130BB0432076616C7565732E2E2E00696E766106
S1130BC06C6964210076616C696421004F54502083
S1130BD062616E6B206973200052656164696E679F
S1130BE0204F54502062616E6B2076616C696420E2
S1130BF0666C61672E2E2E00526573657474696E7F
S1130C0067206D656D6F72792062616E6B2073650C
S1130C106C656374696F6E20746F20302E2E2E0005
S1130C205265766973696F6E204020757365725BD7
S1130C3031365D5B365D203D2000436865636B693A
S1130C406E67206861726477617265207265766987
S1130C5073696F6E2E2E2E0053656C656374696E16
S1130C6067206D656D6F7279206279746520362E08
S1130C702E2E0053656C656374696E672075736509
S1130C80722062616E6B2031362E2E2E0044697301
S1130C9061626C696E6720736C656570206D6F644A
S1130CA0652E2E2E000A0A526573657474696E6788
S1130CB0204D5055363035302E2E2E0001B202FF15
S1130CC0FF0190040923A135016A020600016008AE
S1130CD0000000000000000000600440000000016B
S1130CE06202000000600400400000037B034CCD5E
S1130CF06C03AB0336567600680402CB47A2021895
S1130D000400058BC1010C0400000000037F060CE5
S1130D10C92C979797038903264666006C02200026
S1130D2002400400000000024404000000000248E5
S1130D300400000000024C04000000000250040003
S1130D4000000002540400000000025804000000E7
S1130D5000025C040000000002BC0400000000016A
S1130D60EC0400004000037F060CC92C97979704FD
S1130D7002030D355D040904872D353D00A30100F0
S1130D8000000001078601FE074105F120283038E4
S1130D90077E01300746019A074704F128303807D7
S1130DA06C04F12830380216020001FB00003E00FA
S1130DB00B0036000100020003000000650054FF30
S1130DC0EF0000FA80000B12820001000200000014
S1130DD0000000000000000000000000280000FFE8
S1130DE0FF4581FFFFFA7200000000000003E800E5
S1130DF000000100017FFFFFFE8001001B000000D6
S1130E000000000000000000000000003E0330402D
S1130E1000000002CAE3093E800000200000000038
S1130E20000000400000006000000041FF000000DE
S1130E30000B2A0000165500002182FD872650FD74
S1130E40800000001F00000005800000000000007A
S1130E500100000002000000030000400000000048
S1130E6000046F0002653200005EC0400000000014
S1130E700000000000000000000000FB8C6F5DFD1E
S1130E805D08D9007C733B006C12CC3200139D3298
S1130E9000D0D632000800400001F4FFE680790259
S1130EA00000000000D0D600002710FB0000004026
S1130EB0000000000000000000000000000001002D
S1130EC000000000000100010000000000FA36FFED
S1130ED0BC308E0005FBF0FFD95BC8FFD09ABE0082
S1130EE00010A9FFF41EB200CEBBF7000000010001
S1130EF0000004000200020200000CFFC280000097
S1130F0001800000CF8000400000000000000100CC
S1130F1000000000000600000000140000000000B3
S1130F2000000000000000000000000000000000BD
S1130F3000000000000000000000000000000000AD
S1130F40000000000000000000000000000000039A
S1130F503F68B6793528BCC67ED16C80000000405D
S1130F600000000000B26A00000000000000000061
S1130F7000000000003FF00000003000000000000E
S1130F80000000000000000000000000000000005D
S1130F9000000000000000000000000000254D00DB
S1130FA02F706D000005AE000C02D00000000000A0
S1130FB0650054FFEF000000000000000001000085
S1130FC044000000000C00000001000000000000CC
S1130FD065000000540000FFEF0000000000000066
S1130FE000000000000000000000004000000000BD
S1130FF000000000000000000000004000000000AD
S113100000000000000000000000000000000100DB
S113101000000200000000000000000000000000CA
S113102000000000000000000000000000000000BC
S11310300000000000000000000000001B00000091
S1131040000000000000000000000000000000009C
S1131050000000000000000000000000000000008C
S11310600000000000000040000000001B00000021
S1131070000000000000000000000000000000006C
S1131080000000000000000000000000000000005C
S1131090000000000000000000000000000000004C
S11310A00000000000000000000000D8DCBAA2F13B
S11310B0DEB2B8B4A88191F74A907F916AF3F9DB64
S11310C0A8F9B0BAA080F2CE81F3C2F1C1F2C3F3A1
S11310D0CCA2B280F1C6D880BAA7DFDFDFF2A7C303
S11310E0CBC5B6F087A2942448703C954068345828
S11310F09B78A2F183922D557DD8B1B4B8A1D0913B
S113110080F270F370F27C80A8F101B09887D94323
S1131110D886C988BAA1F20EB89780F1A9DFDFDFBB
S1131120AADFDFDFF2AAC5CDC7A90CC92C97979710
S113113097F1A989264666B0B4BA80ACDEF2CAF14A
S1131140B28C02A9B69800890E161EB8A9B4992CBF
S1131150547CB08AA896365676F1B9AFB4B083C041
S1131160B8A89711B18F98B9AFF024084410641847
S1131170F1A329557DAF83B593AFF0002850F1A3B7
S1131180869F61A6DADEDFD9FAA38696DB31A6D97B
S1131190F8DFBAA68FC2C5C7B28CC1B8A2DFDFDF41
S11311A0A3DFDFDFD8D8F1B8A8B286B4980D355DD7
S11311B0B8AA98B0872D353DB2B6BAAF8C96198FC0
S11311C09FA70E161EB49AB8AA872C547CB9A3DE26
S11311D0DFDFA3B180F2C4CDC9F1B8A9B499830DFE
S11311E0355D89B9A32D557DB593A30E161EA92C83
S11311F0547CB8B4B0F19783A81184A50998A3834B
S1131200F0DA240844106418D8F1A529557DA58581
S113121095021A2E3A565A4048F9F3A3D9F8F09891
S1131220832408441064189782A8F111F098A2242A
S11312300844106418DAF3DED883A59401D9A30214
S1131240F1A2C3C5C7D8F18492A24DDA2AD848695D
S1131250D92AD86855DA32D85071D932D8705DDAC3
S11312603AD85879D93AD87893A34DDA2AD8486924
S1131270D92AD86855DA32D85071D932D8705DDAA3
S11312803AD85879D93AD878A88A9AF02850789ECA
S1131290F38818F19F1D98A8D908D8C89F129EF307
S11312A015A8DA1210D8F1AFC8978734B5B994A449
S11312B021F3D922D8F22DF3D92AD8F235F3D93231
S11312C0D881A4606061D961D86C6869D969D8741F
S11312D07071D971D8B1A384193D5DA3831A3E5EA0
S11312E0931030811011B8B0AF8F94F2DA3ED8B4B5
S11312F09AA88729DAF8D8879A35DAF8D8879A3DF0
S1131300DAF8D8B1B9A49885022E56A581000C1438
S1131310A397B08AF12DD928D84DD948D86DD9686A
S1131320D8B1840DDA0ED8A32983DA2C0ED8A3847D
S11313304983DA2C4C0ED8B8B0A88A9AF520AADAD8
S1131340DFD8A840AAD0DADED8A860AADAD0DFD8DD
S1131350F19786A8319B069907AB9728889BF00CD8
S1131360201440B8B0B4A88C9CF0042851791D30E6
S11313701438B282ABD0982C505078789BF11AB0C4
S1131380F08A9CA82951798B2951798A2470598B28
S11313902058718A4469388B3940688A6448318B93
S11313A0304960A58820097158446811396449306E
S11313B019F1AC002C547CF08CA804285078F188E6
S11313C09726A85998AC8C02264666F0899CA829D1
S11313D05179247059446938644831A988092059DD
S11313E070AB11384069A8193148608CA83C415C45
S11313F0207C00F187981986A86E767EA999882D9D
S1131400557D9EB9A38A228A6E8A568A5E9FB183CD
S1131410062646660E2E4E6E9DB8AD002C547CF208
S1131420B18CB499B9A32D557D8191AC38AD3AB541
S11314308391AC2DD928D84DD948D86DD968D88C8A
S11314409DAE29D904AED851D904AED879D904D8DF
S113145081F39DAD008DAE1981ADD901D8F2AEDA1C
S113146026D88E912983A7D9ADADADADF32AD8D8AE
S1131470F1B0AC89913E5E76F3AC2E2EF1B18C5A6C
S11314809CAC2C2828289CAC3018A8988128343C83
S11314909724A728343C9C24F2B089AC912C4C6C42
S11314A08A9B2DD9D8D851D9D8D879D9D8D8F19EF2
S11314B088A331DAD8D8912DD928D84DD948D86DF8
S11314C0D968D8B18393353D8025DAD8D88569DACF
S11314D0D8D8B49381A328343CF3AB8BF8A391B64A
S11314E009B4D9ABDEFAB0879CB9A3DDF1A3A3A3F9
S11314F0A395F1A3A3A39DF1A3A3A3A3F2A3B490E3
S113150080F2A3A3A3A3A3A3A3A3A3A3B2A3A3A36C
S1131510A3A3A3B087B599F1A3A3A398F1A3A3A30D
S1131520A397A3A3A3A3F39BA3A3DCB9A7F12626A4
S113153026D8D8FF700CE00C4B1D372511241FBE94
S1131540CFEFD8E0DEBFCDBF11E0A0E0B1E0E6EF21
S1131550F7E502C005900D92A037B107D9F723E053
S1131560A0E7B1E001C01D92AB3CB207E1F71AE07D
S1131570CEE9DAE004C02197FE010E94AF29CA39FE
S1131580D107C9F70E94EC0C0C94F92B0C940000C1
S1131590FC01918D228D892F90E0805C9F4F821BEE
S11315A091098F7399270895FC01918D828D981765
S11315B031F0828DE80FF11D858D90E008958FEF55
S11315C09FEF0895FC01918D828D981761F0828DB3
S11315D0DF01A80FB11D5D968C91928D9F5F9F7363
S11315E0928F90E008958FEF9FEF089586E69CE038
S11315F0892B49F080E090E0892B29F00E94660C49
S113160081110E9400000895FC01848DDF01A80F60
S1131610B11DA35ABF4F8C91248D30E02F5F3F4FF3
S11316202F733078332334F421503109206C3F6F09
S11316302F5F3F4F248FA689B7898C93A089B189E6
S11316408C9180648C93938D848D981306C002884A
S1131650F389E02D80818F7D80830895CF93DF937C
S1131660EC01888D81110FC018C00FB607FC0DC0A6
S1131670908195FF0AC0A889B9898C9185FF05C01E
S1131680CE010E94040BEA89FB89908195FDEDCF80
S1131690A889B9898C9186FFE8CFDF91CF9108950D
S11316A00F931F93CF93DF93FC0181E0808F938D81
S11316B0848D981322C0A089B1898C9185FD2FC097
S11316C01CC00FB607FC08C0E889F989808185FF32
S11316D003C0CE010E94040B9C8D091791F38B8DDE
S11316E0FE01E80FF11DE35AFF4F10830B8FEA89C7
S11316F0FB898081806280831BC0238D30E02F5F53
S11317003F4F2F733078332334F421503109206C48
S11317103F6F2F5F3F4F162FEF01022FDDCFA689BA
S1131720B7896C930088F189E02D8081806480837F
S113173081E090E0DF91CF911F910F910895BF92C6
S1131740CF92DF92EF92FF920F931F93CF93DF9389
S1131750EC016A017B01B22EE889F98982E0808379
S11317604115514E61057105B1F060E079E08DE3FA
S113177090E0A70196010E948D2989019A010150E8
S113178011092109310936952795179507950115F2
S113179080E11807A8F0E889F989108260E874E804
S11317A08EE190E0A70196010E948D29DA01C9011A
S11317B00197A109B109B695A795979587958C01CD
S11317C0EC85FD851083EE85FF850083188EEC89FA
S11317D0FD89B082EA89FB89808180618083EA89FE
S11317E0FB89808188608083EA89FB8980818068A5
S11317F08083EA89FB8980818F7D8083DF91CF910B
S11318001F910F91FF90EF90DF90CF90BF900895BC
S11318101F920F920FB60F9211242F938F939F93C1
S1131820AF93BF93EF93FF93E0918001F091810117
S1131830808182FD14C0E0E7F1E0A689B7892C918C
S1131840818D8F5F8F73928D891771F0DF01E18D28
S1131850F0E0E059FE4F258F59968C9305C0E09136
S11318608601F09187018081FF91EF91BF91AF9143
S11318709F918F912F910F900FBE0F901F901895ED
S11318801F920F920FB60F9211242F933F934F93F1
S11318905F936F937F938F939F93AF93BF93EF93D4
S11318A0FF9380E791E00E94040BFF91EF91BF91B9
S11318B0AF919F918F917F916F915F914F913F91E4
S11318C02F910F900FBE0F901F90189580E791E015
S11318D00E94C80A21E0892B09F420E0822F089590
S11318E0E0E7F1E01382128288EE93E0A0E0B0E03A
S11318F084839583A683B78381E191E09183808378
S113190085EC90E09587848784EC90E097878687C0
S113191080EC90E0918B808B81EC90E0938B828BB8
S113192082EC90E0958B848B86EC90E0978B868B91
S1131930118E128E138E148E089508958F929F9295
S1131940AF92BF92CF92DF92EF92FF920F931F93C9
S1131950CF93DF935C017B014C0182E0880E911CE4
S11319606501E5E0CE0ED11C00E010E0F4016191C8
S11319704F014AE050E0C7010E947F0EEC016EE285
S1131980C7010E946A0D8C0F9D1F080F191F8C142C
S11319909D0461F74AE050E0F5016581C7010E94AA
S11319A07F0E800F911FDF91CF911F910F91FF90B8
S11319B0EF90DF90CF90BF90AF909F908F9008955D
S11319C0EDE0F2E081E291E0918380831282138260
S11319D014821582089508950E9480110E94EB0CD0
S11319E00E947C25C6EFDAE00E9433242097E1F3BD
S11319F00E94F60AF9CFCF92DF92EF92FF920F93F3
S1131A001F93CF93DF9341155105C1F06A018C01F7
S1131A10E62EF72EC0E0D0E0D7016D917D01D8010C
S1131A20ED91FC910190F081E02DC8010995892B7D
S1131A3039F02196CC16DD0679F702C0C0E0D0E07B
S1131A40CE01DF91CF911F910F91FF90EF90DF9026
S1131A50CF900895EF92FF920F931F93CF93DF934C
S1131A60FB0164916623B1F07F018C01C0E0D0E0FA
S1131A70D801ED91FC910190F081E02DC801099508
S1131A80892B51F02196F701EC0FFD1F6491611130
S1131A90EFCF02C0C0E0D0E0CE01DF91CF911F9123
S1131AA00F91FF90EF9008956115710581F0FB018E
S1131AB001900020E9F73197AF01461B570BDC0179
S1131AC0ED91FC910280F381E02D0995089580E069
S1131AD090E00895DC01ED91FC910190F081E02DFE
S1131AE009950895DC01ED91FC910280F381E02DCC
S1131AF042E050E063E271E0099508950F931F936B
S1131B00CF93DF93EC010E942A0D8C01CE010E9439
S1131B10720D800F911FDF91CF911F910F91089546
S1131B200F931F93CF93DF93EC010E94540D8C010C
S1131B30CE010E94720D800F911FDF91CF911F91F2
S1131B400F9108954F925F926F927F929F92AF92FE
S1131B50BF92CF92DF92EF92FF920F931F93CF9396
S1131B60DF93CDB7DEB7A1970FB6F894DEBF0FBEF3
S1131B70CDBF5C016A017B01922E19A281E082171C
S1131B8020F00F2EFAE09F2EF02D8E010F5D1F4FD7
S1131B90492C512C612C712CC701B601A30192016F
S1131BA00E948D298C2D929E8019112401501109B7
S1131BB08A3010F4805D01C0895CD8018C93C22EF8
S1131BC0D32EE42EF52EC114D104E104F10421F73F
S1131BD00115110591F0F80101900020E9F7319702
S1131BE0AF01401B510BD501ED91FC910280F381B3
S1131BF0E02DB801C501099502C080E090E0A196EE
S1131C000FB6F894DEBF0FBECDBFDF91CF911F9109
S1131C100F91FF90EF90DF90CF90BF90AF909F9087
S1131C207F906F905F904F900895CF92DF92EF92E4
S1131C30FF920F931F93CF93DF93EC016A017B0113
S1131C402115310541F4E881F9810190F081E02DFD
S1131C50642F09951DC02A303105C1F4772394F40B
S1131C606DE20E946A0D8C0144275527BA014C1974
S1131C705D096E097F092AE0CE010E94A20D800F42
S1131C80911F06C02AE00E94A20D02C00E94A20D6C
S1131C90DF91CF911F910F91FF90EF90DF90CF9044
S1131CA008959A01AB01770F660B770B0E94150E0E
S1131CB008950F931F93CF93DF93EC019A01AB0127
S1131CC0770F660B770B0E94150E8C01CE010E94D4
S1131CD0720D800F911FDF91CF911F910F91089585
S1131CE02115310549F4DC01ED91FC910190F0815D
S1131CF0E02D642F099508950E94A20D08959A017C
S1131D00462F50E060E070E00E94700E08950F933B
S1131D101F93CF93DF93EC019A01AB0160E070E075
S1131D200E94700E8C01CE010E94720D800F911FD3
S1131D30DF91CF911F910F9108950F931F93CF932C
S1131D40DF93EC019A01462F50E060E070E00E94BE
S1131D50700E8C01CE010E94720D800F911FDF91D5
S1131D60CF911F910F9108954F925F927F928F921E
S1131D709F92AF92BF92CF92DF92EF92FF920F9316
S1131D801F93CF93DF9300D000D0CDB7DEB78C0183
S1131D904A015B01722E9A01AB01C501B4010E9494
S1131DA07329882331F066E271E0C8010E94540D62
S1131DB0D2C075016401E894F7F82FEF3FEF4FE7C5
S1131DC05FE7C701B6010E947329811110C02FEF8C
S1131DD03FEF4FE75FE7C701B6010E9429271816B6
S1131DE034F46AE271E0C8010E94540DB4C02FEFCC
S1131DF03FEF4FE75FE4C501B4010E94AF28181616
S1131E0034F46EE271E0C8010E94540DA4C02FEFB7
S1131E103FEF4FE75FECC501B4010E9429278823F7
S1131E2034F46EE271E0C8010E94540D94C020E0C5
S1131E3030E0A901C501B4010E942927882354F484
S1131E406DE2C8010E946A0D7C01B7FAB094B7F83C
S1131E50B09402C0E12CF12C772009F467C0D12C96
S1131E6060E070E080E09FE320E030E040E251E495
S1131E700E942E27D394D710F7CF2BC020E030E058
S1131E8040E251E4C501B4010E94BC284B015C014D
S1131E900E94A0276B01770FEE08FF082AE030E0CC
S1131EA0B701A601C8010E94150E480E591EC701AC
S1131EB0B6010E94D8279B01AC01C501B4010E9460
S1131EC04A264B015C017A947110D8CF842D952D4C
S1131ED042C09B01AC01C501B4010E944B264B01D9
S1131EE05C010E94A72769837A838B839C830E9469
S1131EF0D6279B01AC01C501B4010E944A264B01BF
S1131F005C012AE030E049815A816B817C81C801FF
S1131F100E94700E6C0162E371E0C8010E94540DCE
S1131F208C0D9D1D2C014E0C5F1CA8CF20E030E0D1
S1131F3040E05FE3C501B4010E944B260E94A7273D
S1131F40AB01BC012AE030E0C8010E94700E2C01F4
S1131F504E0C5F1CBBCF0F900F900F900F90DF9132
S1131F60CF911F910F91FF90EF90DF90CF90BF9092
S1131F70AF909F908F907F905F904F9008950E94B4
S1131F80B40E08950F931F93CF93DF93EC010E9437
S1131F90B40E8C01CE010E94720D800F911FDF914F
S1131FA0CF911F910F910895813039F018F082304C
S1131FB051F0089510926E000895EFE6F0E08081EC
S1131FC08D7F80830895E0E7F0E080818D7F8083BA
S1131FD081E08093B000E1EBF0E08081887F846051
S1131FE080831092B3000895CF93C82F8091060187
S1131FF08C1307C0E8E2F2E084919FEF909306010E
S113200001C08FEF0E94D40F60E08C2F0E94291230
S1132010CF9108951F920F920FB60F9211242F9310
S11320203F934F935F936F937F938F939F93AF935C
S1132030BF93EF93FF938091160290911702A091A2
S11320401802B0911902892B8A2B8B2B51F18091A4
S11320501302E0911402F091150290818927808384
S11320608091160290911702A0911802B091190262
S1132070181619061A061B06C4F4809116029091CC
S11320801702A0911802B09119020197A109B10990
S11320908093160290931702A0931802B09319022A
S11320A004C0809106010E94F40FFF91EF91BF914B
S11320B0AF919F918F917F916F915F914F913F91DC
S11320C02F910F900FBE0F901F9018950895823096
S11320D000F5E82FF0E0EE0FFF1FE95FFE4F71837C
S11320E06083882319F0813049F00895E9E6F0E02F
S11320F080818C7F482B4083E89A0895E9E6F0E0DC
S11321008081440F551F440F551F837F482B408304
S1132110E99A08951F920F920FB60F9211242F93EC
S11321203F934F935F936F937F938F939F93AF935B
S1132130BF93EF93FF93E0910701F0910801099594
S1132140FF91EF91BF91AF919F918F917F916F918B
S11321505F914F913F912F910F900FBE0F901F9061
S113216018951F920F920FB60F9211242F933F933D
S11321704F935F936F937F938F939F93AF93BF938B
S1132180EF93FF93E0910901F0910A010995FF9102
S1132190EF91BF91AF919F918F917F916F915F91DB
S11321A04F913F912F910F900FBE0F901F90189554
S11321B01F920F920FB60F9211242F933F938F9378
S11321C09F93AF93BF9380911B0290911C02A091A7
S11321D01D02B0911E0230911A0223E0230F2D3705
S11321E020F40196A11DB11D05C026E8230F029617
S11321F0A11DB11D20931A0280931B0290931C020F
S1132200A0931D02B0931E0280911F0290912002A0
S1132210A0912102B09122020196A11DB11D8093CB
S11322201F0290932002A0932102B0932202BF9137
S1132230AF919F918F913F912F910F900FBE0F906F
S11322401F9018952FB7F89460911B0270911C028F
S113225080911D0290911E022FBF08953FB7F894FC
S113226080911F0290912002A0912102B09122023C
S113227026B5A89B05C02F3F19F00196A11DB11DDD
S11322803FBFBA2FA92F982F8827820F911DA11D18
S1132290B11DBC01CD01660F771F881F991F660F02
S11322A0771F881F991F0895CF92DF92EF92FF92B4
S11322B0CF93DF936B017C010E942E11EB01C114BB
S11322C0D104E104F104A9F00E949D0C0E942E1196
S11322D06C1B7D0B683E734038F081E0C81AD1084E
S11322E0E108F108C851DC4FC114D104E104F10440
S11322F059F7DF91CF91FF90EF90DF90CF90089541
S1132300789484B5826084BD84B5816084BD85B5CC
S1132310826085BD85B5816085BDEEE6F0E0808193
S113232081608083E1E8F0E01082808182608083B4
S1132330808181608083E0E8F0E080818160808337
S1132340E1EBF0E0808184608083E0EBF0E0808169
S113235081608083EAE7F0E080818460808380810B
S113236082608083808181608083808180688083B3
S11323701092C1000895833069F028F48130B1F0DF
S11323808230C1F008958730C9F08830E9F0843094
S113239001F506C0E0E8F0E080818F77808308953E
S11323A0E0E8F0E080818F7D8083089584B58F77A5
S11323B084BD089584B58F7D84BD0895E0EBF0E07D
S11323C080818F7780830895E0EBF0E080818F7DBA
S11323D080830895CF93DF9390E0FC01E35CFD4F8D
S11323E02491FC01EF5AFD4F8491882379F190E008
S11323F0880F991FFC01E159FD4FA591B491FC018F
S1132400EB59FD4FC591D49161110CC09FB7F8945D
S11324108C91E22FE0958E238C932881E223E8832C
S11324209FBF14C0623061F49FB7F8943C91822F2F
S1132430809583238C93E881E22BE8839FBF06C0B9
S11324408FB7F894EC91E22BEC938FBFDF91CF918F
S113245008951F93CF93DF93282F30E0F901E75DB0
S1132460FD4F8491F901E35CFD4F1491F901EF5A9A
S1132470FD4FC491CC23D1F0D62F81110E94BB1102
S1132480EC2FF0E0EE0FFF1FEB59FD4FA591B49137
S11324908FB7F894D11106C09C91E12FE095E92300
S11324A0EC9303C0EC91E12BEC938FBFDF91CF91C0
S11324B01F910895CF93DF93EC01862F6C834D8396
S11324C061E00E94EA1161E08D810E94EA11DF91CE
S11324D0CF9108950F93CF93DF93EC01862F6E83F2
S11324E04F832887098761E00E94EA1161E08F81A8
S11324F00E94EA1161E088850E94EA1161E0898501
S11325000E94EA11DF91CF910F9108950F93CF9319
S1132510DF93EC0142E061E00E945A1206E025E0FC
S113252044E063E0CE010E946A128AE090E099835D
S113253088838FEF90E09B838A83DF91CF910F9103
S11325400895CF93DF93EC0161E08E810E942912FC
S113255060E08F810E94291261E088850E9429121F
S113256060E089850E942912DF91CF910895CF936D
S1132570DF93EC0160E08E810E94291260E08F817C
S11325800E94291260E088850E94291260E08985F2
S11325900E942912DF91CF910895EF92FF920F9339
S11325A01F93CF93DF93C62F142F7901682F85EDE6
S11325B092E00E94BD1C6C2F85ED92E00E94711C7C
S11325C0112381F0E7011150012F10E00F5F1F4F1D
S11325D00E0D1F1D699185ED92E00E94711CC017BC
S11325E0D107C1F785ED92E00E94471D91E081116A
S11325F090E0892FDF91CF911F910F91FF90EF9081
S11326000895CF93DF931F92CDB7DEB749839E0120
S11326102F5F3F4F41E00E94CD120F90DF91CF9189
S11326200895CF92DF92EF92FF921F93CF93DF939F
S1132630C62FE42E6901682F85ED92E00E94BD1C2F
S11326406C2F85ED92E00E94711CF12CEE0CFF1CA6
S11326501E141F04BCF410E0C12FD0E0CC0FDD1F0A
S1132660CC0DDD1D698185ED92E00E94711C6881AD
S113267085ED92E00E94711C1E5F812F90E08E1503
S11326809F0554F385ED92E00E94471D91E081116E
S113269090E0892FDF91CF911F91FF90EF90DF9011
S11326A0CF900895CF93DF9300D0CDB7DEB75A8390
S11326B049839E012F5F3F4F41E00E9411130F9009
S11326C00F90DF91CF9108952F923F924F925F9296
S11326D06F927F928F929F92AF92BF92CF92DF922E
S11326E0EF92FF920F931F93CF93DF9300D000D00C
S11326F000D0CDB7DEB7282E6983C42E79010E949D
S113270022114B015C01CC2009F45BC0312CD12C8B
S11327108C2D90E09B838A832801612C712CCC82C0
S1132720622D85ED92E00E94BD1C698185ED92E0E9
S11327300E94711C85ED92E00E94471D622D85ED7B
S113274092E00E94BD1C4A815B81431951094132C8
S1132750510514F040E250E0622D85ED92E00E94B4
S1132760431D0FC0F701ED0DF11DD7FCFA95FE8353
S1132770ED8385ED92E00E941D1CED81FE81808336
S1132780D39485ED92E00E94151C892B81F00115EC
S1132790110541F30E942211DC01CB01881999092A
S11327A0AA09BB0984159505A605B705D8F28C813D
S11327B0F0E2FC1508F480E2380E3C1408F4B0CFC3
S11327C001C0D12C01151105D1F00E942211DC01A8
S11327D0CB0188199909AA09BB0920E030E08017C8
S11327E09107A207B30758F08C2D90E02D2D0D2CE6
S11327F0000C330B2817390714F4DD24DA948D2DDB
S113280026960FB6F894DEBF0FBECDBFDF91CF91F1
S11328101F910F91FF90EF90DF90CF90BF90AF90FA
S11328209F908F907F906F905F904F903F902F90EC
S113283008950F931F9389019A0141E00E94641344
S11328401F910F910895DF92EF92FF920F931F93C0
S1132850CF93DF931F92CDB7DEB7D42E79019801C1
S1132860AE014F5F5F4F0E94191461E070E0AB014D
S113287002C0440F551FDA94E2F799814923F70106
S113288040830F90DF91CF911F910F91FF90EF90B4
S1132890DF900895CF92DF92EF92FF920F931F93F0
S11328A0CF93DF931F92CDB7DEB7D42EC22E9701FC
S11328B0AE014F5F5F4F0E941914882301F14D2D23
S11328C050E04C1951094F5F5F4F61E070E09B018C
S11328D002C0220F331FCA94E2F721503109042E9B
S11328E002C0220F331F0A94E2F79981292330E0B2
S11328F002C0359527954A95E2F7F80120830F9099
S1132900DF91CF911F910F91FF90EF90DF90CF90C7
S11329100895EF92FF920F931F93CF93DF931F922B
S1132920CDB7DEB7182F062FF42EE22E20910B011F
S113293030910C01AE014F5F5F4F0E941914EE20DD
S113294059F021E030E0A90102C0440F551FFA9468
S1132950E2F78981482B0BC021E030E0A90102C0D5
S1132960440F551FFA94E2F740959981492349830E
S1132970602F812F0E9401130F90DF91CF911F913F
S11329800F91FF90EF900895DF92EF92FF920F93D3
S11329901F93CF93DF931F92CDB7DEB7182FF62E78
S11329A0E42ED22E20910B0130910C01AE014F5F29
S11329B05F4F0E941914882341F1EE2DF0E0ED19C8
S11329C0F109319641E050E09A0102C0220F331F11
S11329D0DA94E2F7215031090E2E02C0220F331F80
S11329E00A94E2F7802F90E002C0880F991FEA95BD
S11329F0E2F7422F4095998149232823422B4983AA
S1132A006F2D812F0E94011301C080E00F90DF9190
S1132A10CF911F910F91FF90EF90DF90089528E6DA
S1132A20FC0120830895462F69E1FC0180810E9406
S1132A30011308950F93062F23E045E06AE1FC019A
S1132A4080810E94C4140F9108950F93062F23E0F0
S1132A5042E06AE1FC0180810E94C4140F91089550
S1132A600F93062F22E044E06BE1FC0180810E9479
S1132A70C4140F9108950F93062F22E044E06CE1F3
S1132A80FC0180810E94C4140F910895462F6FE1C8
S1132A90FC0180810E9401130895462F60E2FC012D
S1132AA080810E9401130895462F61E2FC01808118
S1132AB00E9401130895462F62E2FC0180810E9466
S1132AC001130895643040F4FC01262F220F620F95
S1132AD06B5D80810E9401130895462F68E3FC0119
S1132AE080810E9401130895CF93DF93EC0120911C
S1132AF00B0130910C01AC014F5F5F4F6AE3888199
S1132B000E9419148981DF91CF910895262F46E000
S1132B106AE6FC0180810E9489140895262F45E00D
S1132B206AE6FC0180810E948914089521E042E054
S1132B306AE6FC0180810E948914089521E041E045
S1132B406AE6FC0180810E948914089521E047E02F
S1132B506BE6FC0180810E9489140895262F46E0CB
S1132B606BE6FC0180810E94891408950F93062F5F
S1132B7023E042E06BE6FC0180810E94C4140F91C3
S1132B800895CF93DF93EC0161E00E94B61560E0F5
S1132B90CE010E94301560E0CE010E943B1560E03A
S1132BA0CE010E94AE15DF91CF9108950F931F932C
S1132BB0CF93DF93EC0100910B0110910C019C0168
S1132BC02F5F3F4F42E062E788810E9464132981AE
S1132BD030E0322F22278A81A901482BCA01DF91D4
S1132BE0CF911F910F9108950F931F93442359F090
S1132BF09B01FC0100910B0110910C0164E78081A1
S1132C000E94641302C0FB0110821F910F9108956A
S1132C10EF92FF920F931F93CF93DF93EC01E09019
S1132C200B01F0900C018C010F5F1F4F26E046E072
S1132C3065E788810E944A148981DF91CF911F91B1
S1132C400F91FF90EF9008950E94081691E084334D
S1132C5009F090E0892F08950F931F93CF93DF938A
S1132C60EC0100910B0110910C019C012F5F3F4F6F
S1132C7040E060E088810E9423148981DF91CF9134
S1132C801F910F910895262F40E060E0FC018081A0
S1132C900E9489140895EF92FF920F931F93CF938C
S1132CA0DF93EC01E0900B01F0900C018C010F5FBD
S1132CB01F4F26E046E060E088810E944A14898123
S1132CC0DF91CF911F910F91FF90EF9008950F9393
S1132CD0062F26E046E060E0FC0180810E94C414D7
S1132CE00F910895EF92FF920F931F93CF93DF9369
S1132CF0EC01E0900B01F0900C018C010F5F1F4F71
S1132D0026E046E061E088810E944A148981DF91CF
S1132D10CF911F910F91FF90EF9008950F93062F7D
S1132D2026E046E061E0FC0180810E94C4140F911A
S1132D300895EF92FF920F931F93CF93DF93EC01CB
S1132D40E0900B01F0900C018C010F5F1F4F26E007
S1132D5046E062E088810E944A148981DF91CF9124
S1132D601F910F91FF90EF9008950F93062F26E087
S1132D7046E062E0FC0180810E94C4140F91089532
S1132D80AB016AE0FC0180810E9452130895AB01FB
S1132D9063E1FC0180810E9452130895AB0165E157
S1132DA0FC0180810E9452130895AB0167E1FC018C
S1132DB080810E9452130895262F47E06AE6FC01A1
S1132DC080810E948914089521E043E06AE6FC01B1
S1132DD080810E94891408956F71211160624111EC
S1132DE06064462F6DE6FC0180810E940113089502
S1132DF0462F6EE6FC0180810E9401130895CF9353
S1132E00DF93EC0120910B0130910C01AC014F5F79
S1132E105F4F6FE688810E9419148981DF91CF91F9
S1132E2008954F925F926F927F928F929F92AF928A
S1132E30BF92CF92DF92EF92FF920F931F93CF93A3
S1132E40DF936C015B017A01522E602E20E040E09A
S1132E50652D0E94EC16602FC6010E94F816E1143D
S1132E60F104D9F1C0E0D0E06894442444F8812C02
S1132E7099249394CE014096E816F90618F47E2C12
S1132E807C1A01C0742C872D90E094012619310915
S1132E902817390714F4762C719400910B011091C2
S1132EA00C0195012C0F3D1F472D6FE6F601808123
S1132EB00E946413C70DD11DCE15DF0570F4670C95
S1132EC009F4539420E040E0652DC6010E94EC16FD
S1132ED0662DC6010E94F816CDCFDF91CF911F91C8
S1132EE00F91FF90EF90DF90CF90BF90AF909F90A5
S1132EF08F907F906F905F904F9008952F923F92A4
S1132F004F925F926F927F928F929F92AF92BF92F5
S1132F10CF92DF92EF92FF920F931F93CF93DF93A1
S1132F2000D000D01F92CDB7DEB75C013B014A014F
S1132F302983502EEB82CA8220E040E069810E94FE
S1132F40EC16602FC5010E94F816EB80EE2029F0E4
S1132F5080E190E00E94B5291C018A81882331F028
S1132F6080E190E00E94B5297C0102C0E12CF12CA3
S1132F708114910409F486C01D821C82C12CDD24B5
S1132F80D3948C819D8140968816990620F4482C10
S1132F909C81491A03C06894442444F8842D90E029
S1132FA09601251931092817390714F4452C419441
S1132FB0EA81EE23A9F04420B9F0EC81FD81E60D0D
S1132FC0F71DD7012FEF240D30E02F5F3F4F2E0D5B
S1132FD03F1D84918D933196A217B307D1F704C096
S1132FE0EC80FD80E60CF71C9701442D6FE6F5019B
S1132FF080810E94CD12FB81FF2359F121143104F9
S113300041F120E040E06981C5010E94EC16652D84
S1133010C5010E94F81600910B0110910C01910159
S1133020442D6FE6F50180810E946413442D50E025
S1133030B101C7010E94AC2B892B59F0C1010E9438
S11330404A2AFA81FF2361F1C7010E944A2A80E0DB
S11330502AC08C819D81840D911D9D838C8388154C
S1133060990580F4540C19F499819F5F998320E0A9
S113307040E06981C5010E94EC16652DC5010E94DE
S1133080F8167FCFEB81EE2319F0C1010E944A2A82
S1133090FA81FF2339F0C7010E944A2A81E003C064
S11330A080E001C081E00F900F900F900F900F907F
S11330B0DF91CF911F910F91FF90EF90DF90CF9010
S11330C0BF90AF909F908F907F906F905F904F9044
S11330D03F902F900895CF92EF920F93CC24C394F6
S11330E00E947E170F91EF90CF9008952F923F92F8
S11330F04F925F926F927F928F929F92AF92BF9204
S1133100CF92EF92FF920F931F93CF93DF931C0103
S11331104B012A01F22E222309F47EC088E090E0BC
S11331200E94B5293C014114510419F46CC0612C6E
S1133130712CC0E0D0E0FF20A9F0F401EC0FFD1FDA
S11331401491FE013196E80DF91D04915E0183E0AE
S1133150A80EB11CFE013296E80DF91DE490E110B1
S11331600EC05FC0F401EC0FFD1F108101815E01F0
S113317083E0A80EB11CE280E1101CC058C0E2E05C
S1133180EE1530F46E2D70E0C3010E94E22A3C017A
S11331902E2D30E02115310581F0F401EA0DFB1DDF
S11331A0D301260D371D84918D933196A217B30751
S11331B0D1F703C034016A0C7B1CCE2DD0E0C12CA6
S11331C0EE24E394212FAE01B301C1010E947E17C6
S11331D0CA0DDB1D811111C009C0E13039F442E38D
S11331E068E3F10180810E94011307C0FF2081F090
S11331F0C3010E944A2A80E020C0C415D50508F402
S11332009ACFFF2039F0C3010E944A2A81E015C0F9
S113321080E013C081E011C0452B09F088CF81E024
S11332200CC02496F401EA0DFB1DE491D6CF24963C
S1133230F401EA0DFB1DE081D0CFDF91CF911F9106
S11332400F91FF90EF90CF90BF90AF909F908F9091
S11332507F906F905F904F903F902F90089521E062
S11332600E9476180895462F60E7FC0180810E9431
S113327001130895462F61E7FC0180810E94011328
S113328008951F920F920FB60F9211242F933F931C
S11332904F935F936F937F938F939F93AF93BF935A
S11332A0CF93DF93EF93FF93A0916502B0916602F1
S11332B0109709F481C05E968C915E9781FF0DC0D2
S11332C01E96ED91FC911F9790811D968C911D97F0
S11332D0982381E071F480E00CC01E96ED91FC917E
S11332E01F9790811D968C911D97982381E009F07A
S11332F080E0882309F460C05396ED91FC915497C3
S1133300908155968C915597809589238083569604
S11333108D919C9157970197F1F758966D917C91F7
S113332059971E96CD91DC911F971D965C911D9720
S113333038E040E0FB013197F1F7842F90E0959558
S11333408795482F2881252309F04068315091F74B
S11333505E968C915E9781FD40958091240290E069
S113336001968F739078992324F40197806C9F6F52
S1133370019620912302281749F0E0912402F0E0FD
S1133380EB5DFD4F40838093240207C05E968C91D1
S11333905E9781605E968C935E975A968D919C9110
S11333A05B970197F1F75396ED91FC9154979081B7
S11333B055968C91892B8083FF91EF91DF91CF916A
S11333C0BF91AF919F918F917F916F915F914F9139
S11333D03F912F910F900FBE0F901F901895109250
S11333E0D40281E08093D2021092D10261E082E1A2
S11333F00E94291261E083E10E942912E9EBF0E0C6
S113340080818E7F808380818D7F808388E4809318
S1133410B80085E48093BC000895413208F04CC0A4
S11334209091D4029111FCCF31E03093D4022093D7
S1133430D2022FEF209367021092AC02240F209344
S1133440AB023093D3022091D302880F822B809356
S1133450D3028091D102813081F41092D102ABEB7E
S1133460B0E0ECEBF0E08091D3028C93808183FD9B
S1133470FACF85EC8093BC0003C085EE8093BC003A
S11334808091D4028130E1F38091AC02841710F46E
S11334904091AC02442389F0ADEAB2E0FB018FEF26
S11334A0840F90E00196680F791F8D918193E61740
S11334B0F707D9F7942F01C090E0892F08950F934F
S11334C0413208F057C03091D4023111FCCF92E060
S11334D09093D4020093D2029FEF909367021092CC
S11334E0AC024093AB02442371F0FB01ADEAB2E0BD
S11334F0415050E04F5F5F4F640F751F91919D9352
S1133500E617F707D9F71092D3029091D302880FE8
S1133510892B8093D3028091D102813081F410925F
S1133520D102ABEBB0E0ECEBF0E08091D3028C93F2
S1133530808183FDFACF85EC8093BC0003C085EEC7
S11335408093BC00222341F08091D402823021F484
S11335508091D4028230E1F3809167028F3F79F049
S113356080916702803241F080916702803331F0AC
S113357034E005C031E003C032E001C033E0832F02
S11335800F9108956132C8F42091D4022430B9F423
S1133590609389026623A9F0FC01ABE8B2E06150B4
S11335A0262F30E02F5F3F4F280F391F91919D93B5
S11335B0E217F307D9F780E0089581E0089582E0E7
S11335C0089580E0089585ED8093BC00ECEBF0E075
S11335D0808184FDFDCF1092D402089585EC809300
S11335E0BC001092D40208951F920F920FB60F924E
S11335F011242F933F934F935F936F937F938F93F4
S11336009F93AF93BF93EF93FF938091B900E82FFB
S1133610E87F8E2F90E0893C910508F0F5C0FC010D
S1133620EC5CFF4F0C94AF298091D3028093BB00D4
S113363085EC8093BC00E8C09091AC028091AB0211
S1133640981780F4E091AC0281E08E0F8093AC0275
S1133650F0E0E355FD4F80818093BB0085EC8093BF
S1133660BC00D2C08091D202882319F00E94E31AD0
S1133670CBC081E08093D10284EA8093BC00109295
S1133680D402C2C080E2809367020E94E31ABCC0E5
S113369080E3809367020E94E31AB6C088E38093B4
S11336A067020E94EE1AB0C0E091AC0281E08E0F76
S11336B08093AC028091BB00F0E0E355FD4F808322
S11336C09091AC028091AB02981720F485EC809322
S11336D0BC009AC085E88093BC0096C0E091AC021F
S11336E081E08E0F8093AC028091BB00F0E0E35543
S11336F0FD4F80838091D202882319F00E94E31A3F
S113370083C081E08093D10284EA8093BC0010924C
S1133710D4027AC00E94E31A77C083E08093D40273
S11337201092680285EC8093BC006EC080916802A0
S1133730803280F4E091680281E08E0F8093680209
S11337408091BB00F0E0E759FD4F808385EC8093C6
S1133750BC005AC085E88093BC0056C00E94EE1A93
S113376080916802803230F4E0916802F0E0E75919
S1133770FD4F10826091680270E0E091CD02F091FB
S1133780CE0289E692E00995109268023DC085E870
S11337908093BC0039C084E08093D40210928A02E2
S11337A010928902E091CF02F091D00209958091A4
S11337B08902811105C081E08093890210928B02F5
S11337C0E0918A0281E08E0F80938A02F0E0E5574F
S11337D0FD4F80818093BB0090918A028091890281
S11337E0981720F485EC8093BC000EC085E8809384
S11337F0BC000AC085EC8093BC001092D40204C0C3
S1133800109267020E94E31AFF91EF91BF91AF916A
S11338109F918F917F916F915F914F913F912F91E4
S11338200F900FBE0F901F9018958091050390E0A4
S113383020910603821B91090895909106038091BB
S11338400503981750F4E92FF0E0E95FFC4F20815D
S113385030E09F5F9093060302C02FEF3FEFC90152
S11338600895E091060380910503E81730F4F0E031
S1133870E95FFC4F808190E008958FEF9FEF0895FA
S11338800895CF92DF92EF92FF920F931F93CF93FD
S1133890DF938C01CB016A012091E1022223A1F084
S11338A041155105A1F0EB017B01E40EF51E699170
S11338B0D801ED91FC910190F081E02DC8010995AA
S11338C0CE15DF05A1F703C0642F0E94C21AC601FA
S11338D0DF91CF911F910F91FF90EF90DF90CF90E8
S11338E00895CF93DF931F92CDB7DEB7FC016983B0
S11338F09091E1029923D9F09091E202903238F04C
S113390081E090E09383828380E090E017C080910F
S1133910E302E82FF0E0EC51FD4F998190838F5F33
S11339208093E3028093E20281E090E007C061E0CB
S1133930CE0101960E94C21A81E090E00F90DF91BF
S1133940CF910895FC011382128288EE93E0A0E0E7
S1133950B0E084839583A683B78388E391E0918361
S11339608083089510920603109205031092E302D7
S11339701092E2020E94EF19089581E08093E1021F
S1133980609304031092E3021092E20208950F93ED
S1133990062F21E04091E20264EE72E0809104037C
S11339A00E945F1A1092E3021092E2021092E10266
S11339B00F9108954F925F926F927F92AF92BF9250
S11339C0CF92EF92FF920F931F93CF93DF935C01FB
S11339D0F62ED42F28013901EE2049F10E94BD1C96
S11339E08E2D843008F083E0CFEFC80F8823D9F000
S11339F0D501ED91FC918C2F880F880F880FA301BE
S1133A00920104C056954795379527958A95D2F724
S1133A10CA01B9010190F081E02DC50109959C2FDF
S1133A20C1509111E5CF60E0C5010E94C71C4D2F24
S1133A30D13208F040E22C2D67E073E08F2D0E9414
S1133A400D1A1092060380930503DF91CF911F9105
S1133A500F91FF90EF90CF90BF90AF907F906F90B9
S1133A605F904F900895CF92EF920F931F93C22EC1
S1133A70E12C00E010E098010E94DA1C1F910F91E4
S1133A80EF90CF90089521E00E94331D089561E0E6
S1133A900E94C71C089585ED92E00E94A21C08951F
S1133AA081E08093270308958F929F92AF92BF92F3
S1133AB0CF92EF920F931F93CF93DF93CDB7DEB7DF
S1133AC0C059D1090FB6F894DEBF0FBECDBF4C016B
S1133AD065EA7CE080E791E00E947E0DC4010E94CB
S1133AE0A6156EE170E080E090E00E9454116DE84C
S1133AF07CE080E791E00E947E0D60E0C4010E94BA
S1133B00AE1563E77CE080E791E00E947E0D21E042
S1133B1041E060E1C4010E94EC1668E57CE080E7C6
S1133B2091E00E947E0D66E0C4010E94F8166AE3EB
S1133B307CE080E791E00E947E0D60E27CE080E71B
S1133B4091E00E942A0DC4010E94FF1640E150E05A
S1133B50682F80E791E00E949D0E68EF7BE080E78C
S1133B6091E00E947E0D20E040E060E0C4010E94EC
S1133B70EC1669ED7BE080E791E00E947E0D6CEC31
S1133B807BE080E791E00E942A0DC4010E942C167C
S1133B90811103C06CEB7BE002C065EC7BE080E745
S1133BA091E00E947E0D6BE97BE080E791E00E944A
S1133BB07E0DC4010E944B16A82EC4010E947216E9
S1133BC0B82EC4010E949916182F6AE87BE080E79A
S1133BD091E00E942A0D6A2D0A2C000C770B4AE012
S1133BE050E080E791E00E94590E69E77BE080E7AE
S1133BF091E00E942A0D6B2D0B2C000C770B4AE0F0
S1133C0050E080E791E00E94590E68E67BE080E78F
S1133C1091E00E942A0D612F012E000C770B4AE0DF
S1133C2050E080E791E00E94590E65E47BE080E774
S1133C3091E00E947E0D4FE760E0C4010E9462158E
S1133C4068E27BE080E791E00E947E0D60E0C401C1
S1133C500E948E156EEF7AE080E791E00E947E0D5F
S1133C6048E660E0C4010E9462156EED7AE080E7E8
S1133C7091E00E947E0DC4010E949E1564E170E0F3
S1133C8080E090E00E94541167EB7AE080E791E0D5
S1133C900E942A0D4AE050E069E877E080E791E06D
S1133CA00E94510E6FEA7AE080E791E00E947E0D57
S1133CB0EE24E39400E020E049E857E06BEA7DE07D
S1133CC0C4010E946B18882309F459C367E87AE099
S1133CD080E791E00E947E0D67E57AE080E791E05D
S1133CE00E942A0D4AE050E060EC70E080E791E029
S1133CF00E94510E61E47AE080E791E00E947E0D1B
S1133D0040EC50E06BEE7CE0C4010E942F19882344
S1133D1009F42DC360E17AE080E791E00E947E0D12
S1133D206EEE79E080E791E00E947E0D63E0C401CD
S1133D300E94B6156DEB79E080E791E00E947E0D5C
S1133D4062E1C4010E946D156DE979E080E791E0BC
S1133D500E947E0D64E0C4010E9413156DE679E0B3
S1133D6080E791E00E947E0D61E0C4010E941A1573
S1133D706BE479E080E791E00E947E0D63E0C4018A
S1133D800E9425156BE179E080E791E00E947E0DA9
S1133D9063E0C4010E94301565EE78E080E791E0AD
S1133DA00E947E0D63E0C4010E94331960E0C401E7
S1133DB00E943A196BEC78E080E791E00E947E0D56
S1133DC060E0C4010E94431667E978E080E791E06F
S1133DD00E947E0D6A2DC4010E9467166B2DC401DA
S1133DE00E948E16612FC4010E94B51661E678E028
S1133DF080E791E00E947E0DA12CB12CF501E454E2
S1133E00F34FE491A1E8B0E0AC0FBD1FAA0DB11DC2
S1133E10EC9381E08A0D9FEFA91AB90AE3E0EA1551
S1133E2068F7CD57DF4F4881C358D04090E0242F26
S1133E3030E02D5F3F4F8217930704F350E061E8B1
S1133E4070E06C0F7D1F6D5F7F4FC12CEE24E394F7
S1133E50CE57DF4F0881C258D040CF57DF4F28815B
S1133E60C158D040C4010E947E176BE278E080E71D
S1133E7091E00E947E0D80E0F501E454F34FE4915B
S1133E80A1E8B0E0AC0FBD1FA80FB11DEC938F5F8C
S1133E90FFEFAF1ABF0A843078F3CD57DF4F488164
S1133EA0C358D040682F70E0242F30E02D5F3F4F7F
S1133EB0621773070CF350E061E870E06C0F7D1F2C
S1133EC06D5F7F4FC12CEE24E394CE57DF4F088102
S1133ED0C258D040CF57DF4F2881C158D040C401C9
S1133EE00E947E1769E178E080E791E00E947E0DF0
S1133EF0C4010E94961563E078E080E791E00E9497
S1133F007E0DC4010E94D615182F092F6FEE77E09D
S1133F1080E791E00E942A0D4AE050E0612F702F63
S1133F2080E791E00E94870E412FBE016F5F7F4FB3
S1133F30C4010E94F41564EC77E080E791E00E94EC
S1133F407E0D62E0C4010E94461562E977E080E7D5
S1133F5091E00E947E0D6CE9C4010E94541567E64D
S1133F6077E080E791E00E947E0D60E5C4010E9445
S1133F704D1568E377E080E791E00E947E0D60E0F4
S1133F80C4010E945B1566E277E080E791E00E943D
S1133F907E0DC4010E94961565E177E080E791E00B
S1133FA00E947E0D61E0C4010E94861565E077E001
S1133FB080E791E00E947E0D61E0C4010E94DC165E
S1133FC064EF76E080E791E00E947E0DC4010E94D8
S1133FD0E4166EEB76E080E791E00E947E0D80E0CF
S1133FE0F501E454F34FE491A1E8B0E0AC0FBD1F38
S1133FF0A80FB11DEC938F5F9FEFA91AB90A843003
S113400078F3CD57DF4F4881C358D040682F70E014
S1134010242F30E02D5F3F4F621773070CF350E0FD
S113402061E870E06C0F7D1F6D5F7F4FC12CEE2443
S1134030E394CE57DF4F0881C258D040CF57DF4FAB
S11340402881C158D040C4010E947E1768E876E0F8
S113405080E791E00E947E0D80E0F501E454F34F87
S1134060E491A1E8B0E0AC0FBD1FA80FB11DEC9323
S11340708F5FEFEFAE1ABE0A843078F3CD57DF4F6F
S11340804881C358D040682F70E0242F30E02D5F62
S11340903F4F621773070CF350E061E870E06C0F58
S11340A07D1F6D5F7F4FC12CEE24E394CE57DF4F0D
S11340B00881C258D040CF57DF4F2881C158D04023
S11340C0C4010E947E1762E576E080E791E00E94D9
S11340D07E0D80E0F501E454F34FE491A1E8B0E0F3
S11340E0AC0FBD1FA80FB11DEC938F5FFFEFAF1A8C
S11340F0BF0A843078F3CD57DF4F4881C358D0408E
S1134100682F70E0242F30E02D5F3F4F6217730754
S11341100CF350E061E870E06C0F7D1F6D5F7F4F22
S1134120C12CEE24E394CE57DF4F0881C258D0400F
S1134130CF57DF4F2881C158D040C4010E947E1759
S113414064E376E080E791E00E947E0DC4010E9462
S1134150D6158C010397D0F360E276E080E791E016
S11341600E942A0D4AE050E0B80180E791E00E94E5
S1134170870E6BE076E080E791E00E947E0D402F91
S1134180BE016F5F7F4FC4010E94F4156FEE75E0AE
S113419080E791E00E947E0D65ED75E080E791E097
S11341A00E942A0DC4010E94741540E150E0682F5A
S11341B080E791E00E949D0E6FE975E080E791E051
S11341C00E947E0D80E0F501E454F34FE491A1E8F0
S11341D0B0E0AC0FBD1FA80FB11DEC938F5F9FEF34
S11341E0A91AB90A843078F3CD57DF4F4881C358F0
S11341F0D040682F70E0242F30E02D5F3F4F6217CE
S113420073070CF350E061E870E06C0F7D1F6D5F85
S11342107F4FCE57DF4F0881C258D040CF57DF4F72
S11342202881C158D040C4010E94111761E875E08B
S113423080E791E00E947E0DC4010E94D6158C0196
S11342400397D0F36DE675E080E791E00E942A0DB4
S11342504AE050E0B80180E791E00E94870E68E5EB
S113426075E080E791E00E947E0D402FBE016F5FF4
S11342707F4FC4010E94F4156CE375E080E791E080
S11342800E947E0D62E275E080E791E00E942A0DB3
S1134290C4010E94741540E150E0682F80E791E06A
S11342A00E949D0E6CEE74E080E791E00E947E0D0A
S11342B0F501E454F34F80E001C031969491A1E8F4
S11342C0B0E0AC0FBD1FA80FB11D9C938F5F84306D
S11342D0A0F3CD57DF4F4881C358D040682F70E01A
S11342E0242F30E02D5F3F4F6217730734F350E003
S11342F061E870E06C0F7D1F6D5F7F4FC12CEE2471
S1134300E394CE57DF4F0881C258D040CF57DF4FD8
S11343102881C158D040C4010E947E1760ED74E02A
S113432080E791E00E947E0D68EA74E080E791E006
S11343300E947E0D60E0C4010E94DC166DE674E00C
S113434080E791E00E947E0D8AE290E0F40193837D
S1134350828365E374E080E791E00E947E0DC401EE
S11343600E949615C4010E94741580E00FC067E096
S113437074E080E791E00E947E0D82E007C062EE67
S113438073E080E791E00E947E0D81E0C057DF4F2B
S11343900FB6F894DEBF0FBECDBFDF91CF911F9152
S11343A00F91EF90CF90BF90AF909F908F90089512
S11343B0CF93DF93DB01FA01309719F4EC01E88124
S11343C0F981808190E0982F88272181822B119692
S11343D09C938E93848190E0982F88272581822B4B
S11343E013969C938E931297808590E0982F88273C
S11343F02185822B15969C938E931497848590E047
S1134400982F88272585822B17969C938E93169731
S113441080E0DF91CF910895FF920F931F93CF9384
S1134420DF93CDB7DEB728970FB6F894DEBF0FBE83
S1134430CDBF8B01BE016F5F7F4F0E94D821F82E44
S113444081114CC069817A81072E000C880B990B6D
S11344500E94D82720E030E040E858E30E94BC28BE
S1134460F80160837183828393836B817C81072E3F
S1134470000C880B990B0E94D82720E030E040E81C
S113448058E30E94BC28F80164837583868397836C
S11344906D817E81072E000C880B990B0E94D82712
S11344A020E030E040E858E30E94BC28F80160872F
S11344B07187828793876F817885072E000C880B1C
S11344C0990B0E94D82720E030E040E858E30E948E
S11344D0BC28F80164877587868797878F2D28966F
S11344E00FB6F894DEBF0FBECDBFDF91CF911F9101
S11344F00F91FF9008954F925F926F927F928F92E7
S11345009F92AF92BF92CF92DF92EF92FF920F935E
S11345101F93CF93DF9300D000D0CDB7DEB78B01CC
S11345203A01FA012485358546855785648175816C
S1134530868197810E94BC286B017C01F301208550
S113454031854285538560817181828193810E9486
S1134550BC289B01AC01C701B6010E944A269B01FD
S1134560AC010E944B26F80160837183828393839C
S1134570F301248135814681578160817181828173
S113458093810E94BC286B017C01F301248535854D
S11345904685578560857185828593850E94BC28F0
S11345A09B01AC01C701B6010E944B269B01AC01E3
S11345B00E944B26F8016483758386839783F301F5
S11345C0608171818281938184809580A680B78087
S11345D0C084D184E284F3844484558466847784DB
S11345E09B01AC010E94BC2869837A838B839C83E2
S11345F0A5019401C501B4010E94BC289B01AC0132
S113460069817A818B819C810E944A264B015C01DD
S1134610A7019601C701B6010E94BC289B01AC0109
S1134620C501B4010E944A266B017C01A3019201D9
S1134630C301B2010E94BC289B01AC01C701B601B1
S11346400E944B26F801608771878287938780E0F8
S11346500F900F900F900F90DF91CF911F910F91BA
S1134660FF90EF90DF90CF90BF90AF909F908F908E
S11346707F906F905F904F9008952F923F924F924A
S11346805F926F927F928F929F92AF92BF92CF92DE
S1134690DF92EF92FF920F931F93CF93DF9300D09B
S11346A000D000D0CDB7DEB71B018A013E832D8335
S11346B0FA01C080D180E280F380A7019601C7018E
S11346C0B6010E944B2669837A838B839C83F8010D
S11346D084809580A680B780A5019401C501B401AA
S11346E00E944B262B013C0129813A814B815C813C
S11346F0C701B6010E94BC286B017C01A301920191
S1134700C501B4010E94BC289B01AC01C701B601DC
S11347100E944B2620E030E040E85FE30E944A26F6
S11347206B017C01F8012085318542855385C301E5
S1134730B2010E94BC282B013C01F8012485358577
S11347404685578569817A818B819C810E94BC282A
S11347509B01AC01C301B2010E944A26A701960144
S11347600E94CA26F1016083718382839383ED8161
S1134770FE8184809580A680B780C084D184E28441
S1134780F384A5019401C501B4010E94BC284B0126
S11347905C01A7019601C701B6010E94BC289B01D8
S11347A0AC01C501B4010E944B260E942F299B0134
S11347B0AC01ED81FE8160817181828193810E94CF
S11347C02E270E94FA26F1016483758386839783DA
S11347D0ED81FE8180809180A280B380C084D184E9
S11347E0E284F384A5019401C501B4010E94BC28AC
S11347F04B015C01A7019601C701B6010E94BC28C8
S11348009B01AC01C501B4010E944B260E942F29D3
S11348109B01AC01ED81FE81648175818681978164
S11348200E942E270E94FA26F101608771878287F1
S1134830938780E026960FB6F894DEBF0FBECDBFF7
S1134840DF91CF911F910F91FF90EF90DF90CF9068
S1134850BF90AF909F908F907F906F905F904F909C
S11348603F902F900895CF93DF938091A8038823DE
S113487009F4FAC04091A2035091A3032091A40328
S11348803091A503809127038111D9C042175307A2
S1134890C8F3D5C0811534E0930759F484EB93E051
S11348A00E94961569E772E080E791E00E947E0D10
S11348B0DBC021FFD9C04091A4035091A503841704
S11348C0950778F484EB93E00E94D6159093A303A4
S11348D08093A2034091A4035091A50384179507E4
S11348E088F362E673E084EB93E00E94F415809110
S11348F0A2039091A3032091A4033091A503821BEA
S1134900930B9093A3038093A20342E653E062E5E2
S113491073E084EB93E00E940C2242E553E064E3ED
S113492073E084EB93E00E947B2224E333E042E5CE
S113493053E068E273E084EB93E00E943D2364E477
S113494071E080E791E00E94540DC8E2D3E020E0DA
S113495030E044E353E4688179818A819B810E9439
S1134960BC282BED3FE049E450E40E942E27AB0124
S1134970BC0122E030E080E791E00E94BF0F67E4D1
S113498071E080E791E00E94540D20E030E044E3C0
S113499053E46C817D818E819F810E94BC282BED24
S11349A03FE049E450E40E942E27AB01BC0122E021
S11349B030E080E791E00E94BF0F67E471E080E798
S11349C091E00E94540D20E030E044E353E4688514
S11349D079858A859B850E94BC282BED3FE049E4BC
S11349E050E40E942E27AB01BC0122E030E080E7B6
S11349F091E00E94C20F69E471E080E791E00E94B7
S1134A00900D8AEA93E00E94A11268EE73E080E0C0
S1134A1090E00E9454116CE571E080E791E00E94FF
S1134A20900D8AEA93E00E94B7126091A90381E095
S1134A3068276093A9038DE00E94291215C0109283
S1134A40270384EB93E00E9474158093A70384EBFF
S1134A5093E00E94D6159093A3038093A203209120
S1134A60A70324FF17CF1ACFDF91CF91089584EBCA
S1134A7093E00E940F158AEA93E00E948612E2E511
S1134A80F3E080E090E0A0E8BFE380839183A28319
S1134A90B3831482158216821782108611861286B9
S1134AA013861486158616861786ECE4F3E01182C5
S1134AB010821382128215821482E6E4F3E01182DA
S1134AC010821382128215821482E0E4F3E01182D0
S1134AD010821382128215821482E4E3F3E01082BE
S1134AE01182128213821482158216821782108612
S1134AF011861286138608950F9385ED92E00E9425
S1134B00B21C88E18093B80006E025E044E063E04D
S1134B108AEA93E00E946A1226E040E052EC61E0E7
S1134B2070E080E791E00E949F0B66EC73E080E701
S1134B3091E00E947E0D84EB93E00E94C11568EA27
S1134B4073E080E791E00E947E0D84EB93E00E9485
S1134B502416811103C060E773E002C06AE873E0C1
S1134B6080E791E00E947E0D68E373E080E791E0C6
S1134B700E947E0D80E791E00E94C80A892B31F0E3
S1134B8080E791E00E94E20A892BA1F780E791E097
S1134B900E94C80A892BD1F380E791E00E94C80AD9
S1134BA0892B31F080E791E00E94E20A892BA1F77A
S1134BB064E273E080E791E00E947E0D84EB93E071
S1134BC00E94541D8093A6036CED70E084EB93E087
S1134BD00E94C7166CE470E084EB93E00E94CE164A
S1134BE06BEA7FEF84EB93E00E94D5166CEF76E0DE
S1134BF084EB93E00E94C0168091A603811130C01B
S1134C0064E173E080E791E00E947E0D61E084EB53
S1134C1093E00E94DC1665ED72E080E791E00E946B
S1134C207E0D43E050E060E57DE180E00E94671086
S1134C3084EB93E00E9474158093A7036BEA72E0FF
S1134C4080E791E00E947E0D81E08093A80380912B
S1134C50B6039091B7039093A5038093A40314C063
S1134C606AE872E080E791E00E942A0D4AE050E091
S1134C706091A60380E791E00E947F0E68E872E0ED
S1134C8080E791E00E947E0D61E08DE00E94EA11D0
S1134C900F9108955058BB27AA270E9462260C94AE
S1134CA075280E94672838F00E946E2820F039F495
S1134CB09F3F19F426F40C943D280EF4E095E7FB8D
S1134CC00C943728E92F0E94862858F3BA176207F4
S1134CD073078407950720F079F4A6F50C94A828A7
S1134CE00EF4E0950B2EBA2FA02D0B01B901900103
S1134CF00C01CA01A0011124FF27591B99F0593F47
S1134D0050F4503E68F11A16F040A22F232F342F8E
S1134D104427585FF3CF469537952795A795F040DC
S1134D205395C9F77EF41F16BA0B620B730B840BF1
S1134D30BAF09150A1F0FF0FBB1F661F771F881FA9
S1134D40C2F70EC0BA0F621F731F841F48F4879501
S1134D5077956795B795F7959E3F08F0B0CF9395F3
S1134D60880F08F09927EE0F9795879508950E946C
S1134D70672860F080E891E009F49EEF0E946E28B5
S1134D8028F040E851E071F45EEF0CC00C943D282B
S1134D900C94A828E92FE0780E94862840F3092E75
S1134DA0052AB1F3261737074807590738F00E2E9E
S1134DB007F8E02569F0E025E0640AC0EF6307F82E
S1134DC0009407FADB01B9019D01DC01CA01AD01C0
S1134DD0EF930E9445270E9475280E94FA265F914E
S1134DE0552339F02BED3FE049E450FD49EC0C9498
S1134DF04B260895DF93DD27B92FBF7740E85FE3A3
S1134E001616170648075B0718F4D92F0E94B42812
S1134E109F938F937F936F930E946F29EAEFF1E042
S1134E200E9440280E9475282F913F914F915F91D5
S1134E300E94CF28DD2351F09058A2EA2AED3FE0EA
S1134E4049EC5FE3D0785D270E946226DF910C94E1
S1134E5075280E94132808F481E008950E944227CF
S1134E600C9475280E946E2858F00E94672840F020
S1134E7029F45F3F29F00C94372851110C94A92888
S1134E800C943D280E94862868F39923B1F3552396
S1134E9091F3951B550BBB27AA2762177307840749
S1134EA038F09F5F5F4F220F331F441FAA1FA9F3DF
S1134EB035D00E2E3AF0E0E832D091505040E695CD
S1134EC0001CCAF72BD0FE2F29D0660F771F881F2E
S1134ED0BB1F261737074807AB07B0E809F0BB0B21
S1134EE0802DBF01FF2793585F4F3AF09E3F510535
S1134EF078F00C9437280C94A9285F3FE4F3983E8B
S1134F00D4F3869577956795B795F7959F5FC9F71D
S1134F10880F911D9695879597F90895E1E0660F9E
S1134F20771F881FBB1F621773078407BA0720F017
S1134F30621B730B840BBA0BEE1F88F7E095089580
S1134F400E94A7276894B1110C94A92808950E947F
S1134F508E2888F09F5798F0B92F9927B751B0F051
S1134F60E1F0660F771F881F991F1AF0BA95C9F7E9
S1134F7014C0B13091F00E94A828B1E008950C94B7
S1134F80A828672F782F8827B85F39F0B93FCCF36A
S1134F90869577956795B395D9F73EF49095809566
S1134FA0709561957F4F8F4F9F4F0895E89409C086
S1134FB097FB3EF490958095709561957F4F8F4F48
S1134FC09F4F9923A9F0F92F96E9BB279395F6955E
S1134FD0879577956795B795F111F8CFFAF4BB0FDC
S1134FE011F460FF1BC06F5F7F4F8F4F9F4F16C040
S1134FF0882311F096E911C0772321F09EE8872FCA
S1135000762F05C0662371F096E8862F70E060E085
S11350102AF09A95660F771F881FDAF7880F9695FE
S1135020879597F90895990F0008550FAA0BE0E8A2
S1135030FEEF16161706E807F907C0F01216130656
S1135040E407F50798F0621B730B840B950B39F496
S11350500A2661F0232B242B252B21F408950A26FC
S113506009F4A140A6958FEF811D811D089597F93C
S11350709F6780E870E060E008959FEF80EC0895FA
S1135080DF93CF931F930F93FF92EF92DF927B01F5
S11350908C01689406C0DA2EEF010E94CF28FE012D
S11350A0E894A5912591359145915591A6F3EF0189
S11350B00E946226FE019701A801DA9469F7DF9045
S11350C0EF90FF900F911F91CF91DF9108950024ED
S11350D00A941616170618060906089500240A9459
S11350E012161306140605060895092E0394000CDF
S11350F011F4882352F0BB0F40F4BF2B11F460FF6E
S113510004C06F5F7F4F8F4F9F4F089557FD905896
S1135110440F551F59F05F3F71F04795880F97FB77
S1135120991F61F09F3F79F0879508951216130631
S11351301406551FF2CF4695F1DF08C01616170660
S11351401806991FF1CF8695710561050894089595
S1135150E894BB2766277727CB0197F908950E9427
S1135160132808F48FEF08959B01AC0160E070E010
S113517080E89FE30C942E270E94CF280C94752876
S11351800E94672838F00E946E2820F0952311F0C1
S11351900C9437280C943D2811240C94A9280E94BF
S11351A0862870F3959FC1F3950F50E0551F629FB9
S11351B0F001729FBB27F00DB11D639FAA27F00D6C
S11351C0B11DAA1F649F6627B00DA11D661F829F93
S11351D02227B00DA11D621F739FB00DA11D621F78
S11351E0839FA00D611D221F749F3327A00D611D95
S11351F0231F849F600D211D822F762F6A2F112477
S11352009F5750409AF0F1F088234AF0EE0FFF1FA9
S1135210BB1F661F771F881F91505040A9F79E3F00
S1135220510580F00C9437280C94A9285F3FE4F3CF
S1135230983ED4F3869577956795B795F795E79556
S11352409F5FC1F7FE2B880F911D9695879597F95F
S1135250089519F416F40C943D280C9478290E94AE
S11352608E28B8F39923C9F3B6F39F57550B87FFDC
S11352700E9486290024A0E640EA900180585695B1
S1135280979528F4805C660F771F881F20F02617F7
S11352903707480730F4621B730B840B202931292C
S11352A04A2BA69517940794202531254A2758F7A9
S11352B0660F771F881F20F026173707480730F43A
S11352C0620B730B840B200D311D411DA09581F7DA
S11352D0B901842F9158880F9695879508959B015D
S11352E0AC010C94BC280E941328880B990B0895D8
S11352F09F3F31F0915020F4879577956795B79546
S1135300880F911D9695879597F90895915050406F
S1135310660F771F881FD2F70895A1E21A2EAA1BE1
S1135320BB1BFD010DC0AA1FBB1FEE1FFF1FA21751
S1135330B307E407F50720F0A21BB30BE40BF50B4E
S1135340661F771F881F991F1A9469F760957095D7
S1135350809590959B01AC01BD01CF010895EE0F9E
S1135360FF1F0590F491E02D0994CF93DF938230D1
S1135370910510F482E090E0E091C903F091CA0332
S113538020E030E0C0E0D0E0309711F1408151815D
S113539048175907C0F04817590761F4828193816F
S11353A0209719F09B838A832BC09093CA03809320
S11353B0C90326C02115310519F04217530718F403
S11353C09A01BE01DF01EF010280F381E02DDCCF01
S11353D02115310509F1281B390B2430310590F4CE
S11353E012968D919C9113976115710521F0FB0123
S11353F09383828304C09093CA038093C903FD01FD
S1135400329644C0FD01E20FF31F81939193225021
S113541031092D933C933AC02091C7033091C803BE
S1135420232B41F420910201309103013093C803EE
S11354302093C7032091000130910101211531050A
S113544041F42DB73EB74091040150910501241B4E
S1135450350BE091C703F091C803E217F307A0F4FA
S11354602E1B3F0B2817390778F0AC014E5F5F4FB6
S11354702417350748F04E0F5F1F5093C80340931D
S1135480C7038193919302C0E0E0F0E0CF01DF9184
S1135490CF9108950F931F93CF93DF93009709F44F
S11354A08CC0FC013297138212820091C9031091BF
S11354B0CA030115110581F420813181820F931FE4
S11354C02091C7033091C8032817390779F5F09361
S11354D0C803E093C70371C0D80140E050E0AE17A1
S11354E0BF0750F412962D913C911397AD012115ED
S11354F0310509F1D901F3CF9D01DA013383228308
S113550060817181860F971F8217930769F4EC01FC
S113551028813981260F371F2E5F3F4F3183208327
S11355208A819B8193838283452B29F4F093CA0358
S1135530E093C90342C01396FC93EE931297ED01D6
S1135540499159919E01240F351FE217F30771F415
S113555080819181840F951F029611969C938E935E
S11355608281938113969C938E931297E0E0F0E0EE
S1135570D80112968D919C911397009719F0F80118
S11355808C01F6CF8D919C9198012E5F3F4F820F35
S1135590931F2091C7033091C8032817390769F472
S11355A0309729F41092CA031092C90302C01382DF
S11355B012821093C8030093C703DF91CF911F9108
S11355C00F910895A0E0B0E0E8EEFAE20C94C62B47
S11355D0EC01009721F4CB010E94B529B8C0FC016D
S11355E0E60FF71F9C0122503109E217F30708F474
S11355F0ACC0D9010D911C91119706171707B0F093
S11356000530110508F49FC0C80104978617970751
S113561008F499C002501109061B170B019311934A
S11356206D937C93CF010E944A2A8DC05B01A01A1E
S1135630B10A4C01800E911EA091C903B091CA0316
S113564040E050E0E12CF12C109709F44AC0A81571
S1135650B905D1F56D907C901197630182E0C80E75
S1135660D11CCA14DB0480F1A3014A195B096A0145
S113567082E0C80ED11C1296BC9012971396AC917E
S1135680B5E0CB16D10440F0B282A38351834083AA
S1135690D9016D937C930AC00E5F1F4FC301800F25
S11356A0911FF90191838083EB2DFA2FE114F1040A
S11356B031F0D7011396FC93EE93129744C0F09304
S11356C0CA03E093C9033FC08D919C911197481779
S11356D0590708F4AC017D0112960D90BC91A02DE0
S11356E0B3CF8091C7039091C80388159905E1F45D
S11356F046175707C8F48091000190910101009763
S113570041F48DB79EB74091040150910501841B6B
S1135710950BE817F907C8F4F093C803E093C7039F
S1135720F901718360830FC0CB010E94B5297C010C
S1135730009759F0A801BE010E94B92BCE010E9426
S11357404A2AC70104C0CE0102C080E090E0CDB770
S1135750DEB7EEE00C94E22BFB01DC0104C08D917A
S11357600190801921F441505040C8F7881B990BCF
S11357700895FB01DC0102C001900D92415050409C
S1135780D8F708952F923F924F925F926F927F9233
S11357908F929F92AF92BF92CF92DF92EF92FF923D
S11357A00F931F93CF93DF93CDB7DEB7CA1BDB0BE9
S11357B00FB6F894DEBF0FBECDBF09942A8839888E
S11357C048885F846E847D848C849B84AA84B98495
S11357D0C884DF80EE80FD800C811B81AA81B981A1
S11357E0CE0FD11D0FB6F894DEBF0FBECDBFED01B5
S10957F00895F894FFCFB8
S11357F60000CB032000FF66106610E803000000DB
S113580600500BFB0CC80AE20AD40A2E0B00000057
S1135816009E0C0D0A006E616E00696E66006F765E
S113582666002E0000000000711C411C151C1D1C86
S1135836311C401C797072090052756E6E696E6770
S113584620746865206D6F746F72730053746F7083
S113585670696E6720746865206D6F746F7273006B
S9030000FC
