:100000000C94AF050C94FE0A0C94250B0C94001470
:100010000C9400140C9400140C94D7050C94810AD1
:100020000C94D7050C94D7050C94D7050C94D705E0
:100030000C94D7050C94D7050C94D7050C94D705D0
:100040000C944C0B0C94D7050C9404070C943607B5
:100050000C94D7050C94D7050C94D7050C94D705B0
:100060000C9471160C94D705084AD73B3BCE016E11
:1000700084BCBFFDC12F3D6C74319ABD56833DDAFF
:100080003D00C77F11BED9E4BB4C3E916BAAAABE0E
:10009000000000803F000200000008000201000094
:1000A0000304070000000000000000010204081023
:1000B00020408001020408102001020408102004DE
:1000C00004040404040404020202020202030303FF
:1000D00003030300000000230026002900000000A5
:1000E00000250028002B0000000000240027002A23
:1000F0000042616C616E63696E67204261636B7779
:100100006172640042616C616E63696E6720466F64
:100110007277617264004649464F206F7665726659
:100120006C6F7721000A206D7075496E745374618D
:10013000747573203A006669666F436F756E74203C
:100140003A002900444D5020496E697469616C6918
:100150007A6174696F6E206661696C6564202863DA
:100160006F64652000444D502072656164792120E0
:1001700057616974696E6720666F72206669727371
:100180007420696E746572727570742E2E2E00451F
:100190006E61626C696E6720696E746572727570EB
:1001A0007420646574656374696F6E20284172649D
:1001B00075696E6F2065787465726E616C20696E0A
:1001C000746572727570742030292E2E2E00456E63
:1001D00061626C696E6720444D502E2E2E00496E70
:1001E000697469616C697A696E6720444D502E2E7E
:1001F0002E000A53656E6420616E79206368617217
:10020000616374657220746F20626567696E204453
:100210004D502070726F6772616D6D696E672061FD
:100220006E642064656D6F3A2000496E697469617F
:100230006C697A696E6720426C7565746F6F74685B
:100240002E2E2E004443204D6F746F722050696E25
:100250004D6F64652073656C656374696F6E2073A0
:1002600075636365737366756C004D505536303534
:100270003020636F6E6E656374696F6E20666169AE
:100280006C6564004D50553630353020636F6E6EAE
:10029000656374696F6E20737563636573736675E8
:1002A0006C0054657374696E672064657669636574
:1002B00020636F6E6E656374696F6E732E2E2E00F1
:1002C000496E697469616C697A696E672049324365
:1002D00020646576696365732E2E2E0001B202FFDD
:1002E000FF0190040923A135016A0206000160089C
:1002F0000000000000000000006004400000000159
:100300006202000000600400400000037B034CCD4B
:100310006C03AB0336567600680402CB47A2021882
:100320000400058BC1010C0400000000037F060CD3
:10033000C92C979797038903264666006C02200014
:1003400002400400000000024404000000000248D3
:100350000400000000024C040000000002500400F1
:1003600000000002540400000000025804000000D5
:1003700000025C040000000002BC04000000000158
:10038000EC0400004000037F060CC92C97979704EB
:1003900002030D355D040904872D353D00A30100DE
:1003A00000000001078601FE074105F120283038D2
:1003B000077E01300746019A074704F128303807C5
:1003C0006C04F12830380216020001FB00003E00E8
:1003D0000B0036000100020003000000650054FF1E
:1003E000EF0000FA80000B12820001000200000002
:1003F000000000000000000000000000280000FFD6
:10040000FF4581FFFFFA7200000000000003E800D2
:1004100000000100017FFFFFFE8001001B000000C3
:100420000000000000000000000000003E0330401B
:1004300000000002CAE3093E800000200000000026
:10044000000000400000006000000041FF000000CC
:10045000000B2A0000165500002182FD872650FD62
:10046000800000001F000000058000000000000068
:100470000100000002000000030000400000000036
:1004800000046F0002653200005EC0400000000002
:100490000000000000000000000000FB8C6F5DFD0C
:1004A0005D08D9007C733B006C12CC3200139D3286
:1004B00000D0D632000800400001F4FFE680790247
:1004C0000000000000D0D600002710FB0000004014
:1004D000000000000000000000000000000001001B
:1004E00000000000000100010000000000FA36FFDB
:1004F000BC308E0005FBF0FFD95BC8FFD09ABE0070
:100500000010A9FFF41EB200CEBBF70000000100EE
:10051000000004000200020200000CFFC280000084
:1005200001800000CF8000400000000000000100BA
:1005300000000000000600000000140000000000A1
:1005400000000000000000000000000000000000AB
:10055000000000000000000000000000000000009B
:100560000000000000000000000000000000000388
:100570003F68B6793528BCC67ED16C80000000404B
:100580000000000000B26A0000000000000000004F
:1005900000000000003FF0000000300000000000FC
:1005A000000000000000000000000000000000004B
:1005B00000000000000000000000000000254D00C9
:1005C0002F706D000005AE000C02D000000000008E
:1005D000650054FFEF000000000000000001000073
:1005E00044000000000C00000001000000000000BA
:1005F00065000000540000FFEF0000000000000054
:1006000000000000000000000000004000000000AA
:10061000000000000000000000000040000000009A
:1006200000000000000000000000000000000100C9
:1006300000000200000000000000000000000000B8
:1006400000000000000000000000000000000000AA
:100650000000000000000000000000001B0000007F
:10066000000000000000000000000000000000008A
:10067000000000000000000000000000000000007A
:100680000000000000000040000000001B0000000F
:10069000000000000000000000000000000000005A
:1006A000000000000000000000000000000000004A
:1006B000000000000000000000000000000000003A
:1006C0000000000000000000000000D8DCBAA2F129
:1006D000DEB2B8B4A88191F74A907F916AF3F9DB52
:1006E000A8F9B0BAA080F2CE81F3C2F1C1F2C3F38F
:1006F000CCA2B280F1C6D880BAA7DFDFDFF2A7C3F1
:10070000CBC5B6F087A2942448703C954068345815
:100710009B78A2F183922D557DD8B1B4B8A1D09128
:1007200080F270F370F27C80A8F101B09887D94311
:10073000D886C988BAA1F20EB89780F1A9DFDFDFA9
:10074000AADFDFDFF2AAC5CDC7A90CC92C979797FE
:1007500097F1A989264666B0B4BA80ACDEF2CAF138
:10076000B28C02A9B69800890E161EB8A9B4992CAD
:10077000547CB08AA896365676F1B9AFB4B083C02F
:10078000B8A89711B18F98B9AFF024084410641835
:10079000F1A329557DAF83B593AFF0002850F1A3A5
:1007A000869F61A6DADEDFD9FAA38696DB31A6D969
:1007B000F8DFBAA68FC2C5C7B28CC1B8A2DFDFDF2F
:1007C000A3DFDFDFD8D8F1B8A8B286B4980D355DC5
:1007D000B8AA98B0872D353DB2B6BAAF8C96198FAE
:1007E0009FA70E161EB49AB8AA872C547CB9A3DE14
:1007F000DFDFA3B180F2C4CDC9F1B8A9B499830DEC
:10080000355D89B9A32D557DB593A30E161EA92C70
:10081000547CB8B4B0F19783A81184A50998A38338
:10082000F0DA240844106418D8F1A529557DA5856F
:1008300095021A2E3A565A4048F9F3A3D9F8F0987F
:10084000832408441064189782A8F111F098A22418
:100850000844106418DAF3DED883A59401D9A30202
:10086000F1A2C3C5C7D8F18492A24DDA2AD848694B
:10087000D92AD86855DA32D85071D932D8705DDAB1
:100880003AD85879D93AD87893A34DDA2AD8486912
:10089000D92AD86855DA32D85071D932D8705DDA91
:1008A0003AD85879D93AD878A88A9AF02850789EB8
:1008B000F38818F19F1D98A8D908D8C89F129EF3F5
:1008C00015A8DA1210D8F1AFC8978734B5B994A437
:1008D00021F3D922D8F22DF3D92AD8F235F3D9321F
:1008E000D881A4606061D961D86C6869D969D8740D
:1008F0007071D971D8B1A384193D5DA3831A3E5E8E
:10090000931030811011B8B0AF8F94F2DA3ED8B4A2
:100910009AA88729DAF8D8879A35DAF8D8879A3DDD
:10092000DAF8D8B1B9A49885022E56A581000C1426
:10093000A397B08AF12DD928D84DD948D86DD96858
:10094000D8B1840DDA0ED8A32983DA2C0ED8A3846B
:100950004983DA2C4C0ED8B8B0A88A9AF520AADAC6
:10096000DFD8A840AAD0DADED8A860AADAD0DFD8CB
:10097000F19786A8319B069907AB9728889BF00CC6
:10098000201440B8B0B4A88C9CF0042851791D30D4
:100990001438B282ABD0982C505078789BF11AB0B2
:1009A000F08A9CA82951798B2951798A2470598B16
:1009B0002058718A4469388B3940688A6448318B81
:1009C000304960A58820097158446811396449305C
:1009D00019F1AC002C547CF08CA804285078F188D4
:1009E0009726A85998AC8C02264666F0899CA829BF
:1009F0005179247059446938644831A988092059CB
:100A000070AB11384069A8193148608CA83C415C32
:100A1000207C00F187981986A86E767EA999882D8A
:100A2000557D9EB9A38A228A6E8A568A5E9FB183BB
:100A3000062646660E2E4E6E9DB8AD002C547CF2F6
:100A4000B18CB499B9A32D557D8191AC38AD3AB52F
:100A50008391AC2DD928D84DD948D86DD968D88C78
:100A60009DAE29D904AED851D904AED879D904D8CD
:100A700081F39DAD008DAE1981ADD901D8F2AEDA0A
:100A800026D88E912983A7D9ADADADADF32AD8D89C
:100A9000F1B0AC89913E5E76F3AC2E2EF1B18C5A5A
:100AA0009CAC2C2828289CAC3018A8988128343C71
:100AB0009724A728343C9C24F2B089AC912C4C6C30
:100AC0008A9B2DD9D8D851D9D8D879D9D8D8F19EE0
:100AD00088A331DAD8D8912DD928D84DD948D86DE6
:100AE000D968D8B18393353D8025DAD8D88569DABD
:100AF000D8D8B49381A328343CF3AB8BF8A391B638
:100B000009B4D9ABDEFAB0879CB9A3DDF1A3A3A3E6
:100B1000A395F1A3A3A39DF1A3A3A3A3F2A3B490D0
:100B200080F2A3A3A3A3A3A3A3A3A3A3B2A3A3A35A
:100B3000A3A3A3B087B599F1A3A3A398F1A3A3A3FB
:100B4000A397A3A3A3A3F39BA3A3DCB9A7F1262692
:100B500026D8D8FF6607D607CA18B11DFD1D112477
:100B60001FBECFEFD8E0DEBFCDBF11E0A0E0B1E007
:100B7000ECE5FDE402C005900D92A83BB107D9F762
:100B800024E0A8EBB1E001C01D92AB33B207E1F75E
:100B900015E0CEEAD5E004C02197FE010E9457245B
:100BA000CA3AD107C9F70E94E2070C94A1260C9417
:100BB0000000FC01918D228D892F90E0805C9F4F79
:100BC000821B91098F7399270895FC01918D828D65
:100BD000981731F0828DE80FF11D858D90E0089512
:100BE0008FEF9FEF0895FC01918D828D981761F032
:100BF000828DDF01A80FB11D5D968C91928D9F5F54
:100C00009F73928F90E008958FEF9FEF08958CE58A
:100C100097E0892B49F080E090E0892B29F00E9431
:100C20005C0781110C9400000895FC01848DDF01A4
:100C3000A80FB11DA35ABF4F2C91848D90E001964F
:100C40008F739927848FA689B7892C93A089B1893E
:100C50008C9180648C93938D848D981306C0028848
:100C6000F389E02D80818F7D80830895CF93DF937A
:100C7000EC01888D8823C9F0EA89FB89808185FD94
:100C800005C0A889B9898C9186FD0FC00FB607FCF5
:100C9000F5CF808185FFF2CFA889B9898C9185FF36
:100CA000EDCFCE010E941506E7CFDF91CF910895D9
:100CB000EF92FF920F931F93CF93DF93EC0181E0AC
:100CC000888F9B8D8C8D981305C0E889F989808168
:100CD00085FD24C0F62E0B8D10E00F5F1F4F0F73A4
:100CE0001127E02E8C8DE8120CC00FB607FCFACF4E
:100CF000E889F989808185FFF5CFCE010E9415062C
:100D0000F1CF8B8DFE01E80FF11DE35AFF4FF0820A
:100D10000B8FEA89FB898081806207C0EE89FF8999
:100D20006083E889F98980818064808381E090E034
:100D3000DF91CF911F910F91FF90EF900895CF9287
:100D4000DF92EF92FF921F93CF93DF93EC016A0142
:100D50007B01122FE889F98982E080834115514E89
:100D600061057105B1F060E079E08DE390E0A701E5
:100D700096010E940224DA01C9010197A109B10973
:100D8000B695A79597958795AC01411580E15807D1
:100D9000A8F0E889F989108260E874E88EE190E0B3
:100DA000A70196010E940224BA01A90141505109EC
:100DB000610971097695679557954795EC85FD858D
:100DC0005083EE85FF854083188EEC89FD89108362
:100DD000EA89FB89808180618083EA89FB8980813F
:100DE00088608083EA89FB89808180688083EA89C2
:100DF000FB8980818F7D8083DF91CF911F91FF9050
:100E0000EF90DF90CF9008951F920F920FB60F9240
:100E100011242F938F939F93EF93FF93E091C80139
:100E2000F091C9018081E091CE01F091CF0182FD66
:100E300012C090818091D1018F5F8F732091D20178
:100E4000821751F0E091D101F0E0E854FE4F958F08
:100E50008093D10101C08081FF91EF919F918F918B
:100E60002F910F900FBE0F901F9018951F920F9209
:100E70000FB60F9211242F933F934F935F936F936D
:100E80007F938F939F93AF93BF93EF93FF9388EBE1
:100E900091E00E941506FF91EF91BF91AF919F9154
:100EA0008F917F916F915F914F913F912F910F9013
:100EB0000FBE0F901F90189588EB91E00E94D90506
:100EC00021E0892B09F420E0822F0895E8EBF1E07E
:100ED0001382128288EE93E0A0E0B0E084839583D1
:100EE000A683B78381E191E09183808385EC90E0D4
:100EF0009587848784EC90E09787868780EC90E0E4
:100F0000918B808B81EC90E0938B828B82EC90E0D4
:100F1000958B848B86EC90E0978B868B118E128E4E
:100F2000138E148E089508958F929F92AF92BF9260
:100F3000CF92DF92EF92FF920F931F93CF93DF93A5
:100F40007C018B016C0182E0C80ED11C4701E5E0F9
:100F50008E0E911CC0E0D0E0F60161916F014AE075
:100F600050E0C8010E9445095C016EE2C8010E9480
:100F700057088A0D9B1DC80FD91FC814D90461F7E3
:100F80004AE050E0F7016581C8010E9445098C0FD5
:100F90009D1FDF91CF911F910F91FF90EF90DF90F8
:100FA000CF90BF90AF909F908F900895E5E5F2E0CD
:100FB00081E291E0918380831282138214821582F0
:100FC000089508950E94EF0B0E94E1070E94011E00
:100FD000C7E0D6E00E94E81E2097E1F30E940706D2
:100FE000F9CFCF92DF92EF92FF920F931F93CF939F
:100FF000DF936C017A018B01C0E0D0E0CE15DF05F4
:1010000089F0D8016D918D01D601ED91FC9101908F
:10101000F081E02DC6010995892B11F47E0102C0F3
:101020002196ECCFC701DF91CF911F910F91FF90D7
:10103000EF90DF90CF9008956115710579F0FB0175
:1010400001900020E9F73197AF01461B570BDC01F7
:10105000ED91FC910280F381E02D099480E090E015
:101060000895EF92FF920F931F93CF93DF938C011C
:101070007B01C0E0D0E0F701EC0FFD1F6491662317
:1010800061F0D801ED91FC910190F081E02DC80153
:101090000995892B11F02196EECFCE01DF91CF91EA
:1010A0001F910F91FF90EF9008950C941C08DC01A4
:1010B000ED91FC910190F081E02D099463E271E0E3
:1010C0000C941C080F931F93CF93DF93EC010E94A5
:1010D00031088C01CE010E945E08800F911FDF91C4
:1010E000CF911F910F9108950F931F93CF93DF938B
:1010F000EC010E941C088C01CE010E945E08800F4A
:10110000911FDF91CF911F910F9108950F931F931E
:10111000CF93DF93EC010E9457088C01CE010E940F
:101120005E08800F911FDF91CF911F910F9108955D
:101130008F929F92AF92BF92CF92DF92EF92FF92E7
:101140000F931F93CF93DF93CDB7DEB7A1970FB661
:10115000F894DEBF0FBECDBF6C01142FE52FCB017D
:10116000022F19A2223008F40AE07E0121E2E20EE9
:10117000F11C802E912CA12CB12C612F7E2FA5016A
:1011800094010E940224029F1019112481E0E81AA0
:10119000F1081A3010F4105D01C0195CF7011083DA
:1011A000122FE32FCA01232B242B252B31F7B70154
:1011B000C6010E941C08A1960FB6F894DEBF0FBEB0
:1011C000CDBFDF91CF911F910F91FF90EF90DF90F6
:1011D000CF90BF90AF909F908F900895CF92DF9265
:1011E000EF92FF920F931F93CF93DF93EC016A016D
:1011F0007B012115310579F4E881F9810190F081B5
:10120000E02D642FDF91CF911F910F91FF90EF9010
:10121000DF90CF9009942A303105E9F477FF1AC0A6
:101220006DE20E9457088C0144275527BA014C19DA
:101230005D096E097F092AE0CE010E949808800F9F
:10124000911FDF91CF911F910F91FF90EF90DF9051
:10125000CF9008952AE0B701A601CE01DF91CF918A
:101260001F910F91FF90EF90DF90CF900C94980812
:101270002115310541F4DC01ED91FC910190F081E3
:10128000E02D642F09940C9498089A01462F50E0A1
:1012900060E070E00C9438099A01AB0160E070E006
:1012A0000C9438094F925F926F927F928F929F9227
:1012B000AF92BF92CF92DF92EF92FF92CF93DF93E4
:1012C000EC016A017B01B22E9A01AB01C701B601A4
:1012D0000E94D423882319F066E271E027C026011A
:1012E0003701E89477F82FEF3FEF4FE75FE7C3014F
:1012F000B2010E94D42381110DC02FEF3FEF4FE7C1
:101300005FE7C301B2010E948A2118161CF46AE249
:1013100071E00CC02FEF3FEF4FE75FE4C701B6016C
:101320000E94102318169CF46EE271E0CE01DF914A
:10133000CF91FF90EF90DF90CF90BF90AF909F90B4
:101340008F907F906F905F904F900C941C082FEFC0
:101350003FEF4FE75FECC701B6010E948A2187FD8E
:10136000E3CF20E030E0A901C701B6010E948A2145
:1013700087FF0AC06DE2CE010E9457084C01F7FAC0
:10138000F094F7F8F09402C0812C912CA12C60E02D
:1013900070E080E09FE3AB1441F020E030E040E2F9
:1013A00051E40E948F21A394F6CF9B01AC01C701A9
:1013B000B6010E94AC202B013C010E9408226B0167
:1013C0007C010E9437229B01AC01C301B2010E9443
:1013D000AB202B013C012AE0B701A601CE010E94FF
:1013E00098087C01E80CF91CBB2039F062E371E03D
:1013F000CE010E941C08E80EF91EDB2CDD2039F11D
:1014000020E030E040E251E4C301B2010E941D231C
:101410002B013C010E9401224B01770FAA08BB0857
:101420002AE030E0B501A401CE010E94EE08E80EEA
:10143000F91EC501B4010E9439229B01AC01C30110
:10144000B2010E94AB202B013C01DA94D7CFC70137
:10145000DF91CF91FF90EF90DF90CF90BF90AF9052
:101460009F908F907F906F905F904F9008950C9415
:1014700052090F931F93CF93DF93EC010E945209FF
:101480008C01CE010E945E08800F911FDF91CF91E9
:101490001F910F910895813039F018F0823051F08A
:1014A000089510926E00089580916F008D7F809353
:1014B0006F000895809170008D7F8093700081E0AF
:1014C0008093B0008091B100887F84608093B100E8
:1014D0001092B3000895CF93C82F809106018C130A
:1014E00007C0E6E9F0E0E4918FEF8093060101C0C8
:1014F000EFEF8E2F0E944B0A60E08C2FCF910C945F
:101500008F0C1F920F920FB60F9211242F933F93BF
:101510004F935F936F937F938F939F93AF93BF93FB
:10152000EF93FF9380915E0290915F02A091600221
:10153000B0916102892B8A2B8B2B51F180915B0238
:10154000E0915C02F0915D02908189278083809117
:101550005E0290915F02A0916002B0916102181644
:1015600019061A061B06C4F480915E0290915F0270
:10157000A0916002B09161020197A109B109809325
:101580005E0290935F02A0936002B093610204C078
:10159000809106010E946B0AFF91EF91BF91AF917C
:1015A0009F918F917F916F915F914F913F912F917B
:1015B0000F900FBE0F901F90189508958230E8F499
:1015C000E82FF0E0EE0FFF1FE95FFE4F71836083AD
:1015D000813041F0809169008C7F482B40936900F5
:1015E000E89A089580916900440F551F440F551FD4
:1015F000837F482B40936900E99A08951F920F92C8
:101600000FB60F9211242F933F934F935F936F93D5
:101610007F938F939F93AF93BF93EF93FF93E0914B
:101620000701F09108010995FF91EF91BF91AF91EA
:101630009F918F917F916F915F914F913F912F91EA
:101640000F900FBE0F901F9018951F920F920FB61C
:101650000F9211242F933F934F935F936F937F9338
:101660008F939F93AF93BF93EF93FF93E091090103
:10167000F0910A010995FF91EF91BF91AF919F9170
:101680008F917F916F915F914F913F912F910F902B
:101690000FBE0F901F9018951F920F920FB60F92CA
:1016A00011242F933F938F939F93AF93BF93809178
:1016B000630290916402A0916502B091660230913C
:1016C000620223E0230F2D3720F40196A11DB11DE6
:1016D00005C026E8230F0296A11DB11D20936202CA
:1016E0008093630290936402A0936502B0936602B4
:1016F0008091670290916802A0916902B0916A029C
:101700000196A11DB11D8093670290936802A0937A
:101710006902B0936A02BF91AF919F918F913F91FF
:101720002F910F900FBE0F901F9018952FB7F89420
:1017300060916302709164028091650290916602EB
:101740002FBF08953FB7F894809167029091680287
:10175000A0916902B0916A0226B5A89B05C02F3FEF
:1017600019F00196A11DB11D3FBFBA2FA92F982FC7
:101770008827820F911DA11DB11DBC01CD0142E042
:10178000660F771F881F991F4A95D1F70895CF924A
:10179000DF92EF92FF92CF93DF936B017C010E9467
:1017A000A20BEB01C114D104E104F10489F00E9401
:1017B00093070E94A20B6C1B7D0B683E734090F355
:1017C00081E0C81AD108E108F108C851DC4FEACF1E
:1017D000DF91CF91FF90EF90DF90CF9008957894B4
:1017E00084B5826084BD84B5816084BD85B5826026
:1017F00085BD85B5816085BDEEE6F0E080818160C4
:101800008083E1E8F0E010828081826080838081C3
:1018100081608083E0E8F0E0808181608083E1EB9B
:10182000F0E0808184608083E0EBF0E08081816083
:101830008083EAE7F0E08081846080838081826039
:101840008083808181608083808180688083109222
:10185000C1000895833081F028F4813099F08230FE
:10186000A1F008958730A9F08830B9F08430D1F420
:10187000809180008F7D03C0809180008F7780935E
:101880008000089584B58F7702C084B58F7D84BDB4
:1018900008958091B0008F7703C08091B0008F7D54
:1018A0008093B0000895CF93DF9390E0FC01E5555D
:1018B000FF4F2491FC01E154FF4F8491882361F193
:1018C00090E0880F991FFC01E951FF4FC591D49119
:1018D000FC01E352FF4FA591B491611109C09FB77C
:1018E000F8948881209582238883EC912E230BC065
:1018F000623061F49FB7F8943881822F80958323FA
:101900008883EC912E2B2C939FBF06C08FB7F89441
:10191000E8812E2B28838FBFDF91CF9108951F93ED
:10192000CF93DF93282F30E0F901E956FF4F8491E0
:10193000F901E555FF4FD491F901E154FF4FC491EE
:10194000CC23C9F0162F81110E942A0CEC2FF0E055
:10195000EE0FFF1FE352FF4FA591B4918FB7F8949C
:10196000111105C09C91ED2FE095E92302C0EC9187
:10197000ED2BEC938FBFDF91CF911F9108952AE05B
:1019800030E0FC01318320832FEF30E0338322836A
:1019900008950F93CF93DF93EC01862F6E834F83CF
:1019A0002887098761E00E94530C61E08F810E94C3
:1019B000530C61E088850E94530C61E08985DF91BA
:1019C000CF910F910C94530CCF93DF93EC0160E017
:1019D0008E810E948F0C60E08F810E948F0C60E0EE
:1019E00088850E948F0C60E08985DF91CF910C94EF
:1019F0008F0CCF93DF93EC0161E08E810E948F0CFE
:101A000060E08F810E948F0C61E088850E948F0CBE
:101A100060E08985DF91CF910C948F0CCF93DF9399
:101A2000EC0160E08E810E948F0C61E08F810E944A
:101A30008F0C60E088850E948F0C61E08985DF91C2
:101A4000CF910C948F0CEF92FF920F931F93CF9333
:101A5000DF9300D0CDB7DEB7062F142F682F8DE1AE
:101A600093E029833A830E944318602F8DE193E02D
:101A70000E94FA172981022FE22E3A81F32E8E2D31
:101A8000801B811740F4F70161917F018DE193E0A4
:101A90000E94FA17F4CF8DE193E00E94C71891E0FD
:101AA000811190E0892F0F900F90DF91CF911F91BE
:101AB0000F91FF90EF900895CF93DF931F92CDB7D2
:101AC000DEB749839E012F5F3F4F41E00E94230D07
:101AD0000F90DF91CF910895DF92EF92FF920F93D5
:101AE0001F93CF93DF93C62F042F7901682F8DE1C9
:101AF00093E00E9443186C2F8DE193E00E94FA1747
:101B000010E0000F111FD12CCD2DD0E0C017D10750
:101B10008CF4CC0FDD1FCE0DDF1D69818DE193E0CC
:101B20000E94FA1768818DE193E00E94FA17D3941E
:101B3000D394EACF8DE193E00E94C71891E0811120
:101B400090E0892FDF91CF911F910F91FF90EF903F
:101B5000DF900895CF93DF9300D0CDB7DEB75A83DF
:101B600049839E012F5F3F4F41E00E946C0D0F9013
:101B70000F90DF91CF9108952F923F924F925F92F5
:101B80006F927F928F929F92AF92BF92CF92DF928D
:101B9000EF92FF920F931F93CF93DF9300D000D06B
:101BA0001F92CDB7DEB7F82EE62E242E69010E94D3
:101BB000960B4B015C01312C1D82822D90E09C83A1
:101BC0008B832801612C712C321408F051C06F2DC9
:101BD0008DE193E00E9443186E2D8DE193E00E9409
:101BE000FA178DE193E00E94C7186F2D8DE193E005
:101BF0000E9443184B815C814319510941325105C0
:101C000014F040E250E06F2D8DE193E00E94C41883
:101C10008DE193E00E949E17892B19F101151105A2
:101C200099F4F6012D81E20FF11D27FDFA95FA8353
:101C3000E9838DE193E00E94A617E981FA81808310
:101C40002D812F5F2D83E4CF0E94960BDC01CB0109
:101C500088199909AA09BB0984159505A605B70530
:101C600000F3822D40E2421508F480E2380EACCF3A
:101C700001151105D1F00E94960BDC01CB018819EA
:101C80009909AA09BB0920E030E080179107A20753
:101C9000B30758F0822D90E0ED812E2FEE0F330B1D
:101CA0002817390714F42FEF2D838D810F900F9093
:101CB0000F900F900F90DF91CF911F910F91FF9098
:101CC000EF90DF90CF90BF90AF909F908F907F90DC
:101CD0006F905F904F903F902F9008950F931F93B8
:101CE00089019A0141E00E94BC0D1F910F91089556
:101CF000CF92DF92EF92FF920F931F93CF93DF93D8
:101D00001F92CDB7DEB7D42EC22E9701AE014F5F22
:101D10005F4F0E946E0E8823F1F04D2D50E04C195C
:101D200051094F5F5F4F21E030E002C0220F331FA7
:101D3000CA94E2F721503109042E01C0220F0A94FF
:101D4000EAF79981292330E002C0359527954A9515
:101D5000E2F7F80120830F90DF91CF911F910F914F
:101D6000FF90EF90DF90CF900895EF92FF920F9346
:101D70001F93CF93DF931F92CDB7DEB7182F062F97
:101D8000F42EE22E20910B0130910C01AE014F5F39
:101D90005F4F0E946E0E9981EE2041F041E050E0CD
:101DA00001C0440FFA94EAF7492B09C021E030E062
:101DB000A90101C0440FFA94EAF7409549234983E9
:101DC000602F812F0E945C0D0F90DF91CF911F91AA
:101DD0000F91FF90EF900895DF92EF92FF920F9393
:101DE0001F93CF93DF931F92CDB7DEB7182FF62E38
:101DF000E42ED22E20910B0130910C01AE014F5FE9
:101E00005F4F0E946E0E882321F1EE2DF0E0ED1958
:101E1000F109319621E030E002C0220F331FDA943D
:101E2000E2F7215031090E2E01C0220F0A94EAF781
:101E3000802F01C0880FEA95EAF7422F40959981DB
:101E400049232823422B49836F2D812F0E945C0D4B
:101E500001C080E00F90DF91CF911F910F91FF9013
:101E6000EF90DF90089528E6FC0120830895462F27
:101E700069E1FC0180810C945C0D0F93062F23E037
:101E800045E06AE1FC0180810E94EC0E0F9108950B
:101E90000F93062F23E042E06AE1FC0180810E945B
:101EA000EC0E0F9108950F93062F22E044E06BE1B2
:101EB000FC0180810E94EC0E0F9108950F93062F74
:101EC00022E044E06CE1FC0180810E94EC0E0F9165
:101ED0000895462F6FE1FC0180810C945C0D462F24
:101EE00060E2FC0180810C945C0D462F61E2FC01F4
:101EF00080810C945C0D462F62E2FC0180810C9481
:101F00005C0D643040F4262F220F620F6B5DFC01E4
:101F100080810C945C0D0895462F68E3FC0180815C
:101F20000C945C0DCF93DF93EC0120910B01309169
:101F30000C01AC014F5F5F4F6AE388810E946E0E17
:101F40008981DF91CF910895262F46E06AE6FC0152
:101F500080810C94B50E262F45E06AE6FC01808155
:101F60000C94B50E21E042E06AE6FC0180810C94FD
:101F7000B50E21E041E06AE6FC0180810C94B50ECB
:101F800021E047E06BE6FC0180810C94B50E262F22
:101F900046E06BE6FC0180810C94B50E0F93062F92
:101FA00023E042E06BE6FC0180810E94EC0E0F9181
:101FB0000895CF93DF93EC0161E00E94CE0F60E0C3
:101FC000CE010E94530F60E0CE010E945E0F60E0E0
:101FD000CE01DF91CF910C94C70F0F931F93CF9336
:101FE000DF93EC0100910B0110910C019C012F5F1C
:101FF0003F4F42E062E788810E94BC0D298130E0BA
:10200000322F22278A81A901482BCA01DF91CF9163
:102010001F910F9108950F931F93442359F09B0133
:10202000FC0100910B0110910C0164E780810E947A
:10203000BC0D02C0FB0110821F910F910895EF9219
:10204000FF920F931F93CF93DF93EC01E0900B016E
:10205000F0900C018C010F5F1F4F26E046E065E712
:1020600088810E94780E8981DF91CF911F910F9115
:10207000FF90EF9008950E941F1091E0843309F0C3
:1020800090E0892F0895262F40E060E0FC018081D8
:102090000C94B50EEF92FF920F931F93CF93DF93A3
:1020A000EC01E0900B01F0900C018C010F5F1F4FD1
:1020B00026E046E060E088810E94780E8981DF9109
:1020C000CF911F910F91FF90EF9008950F93062FDE
:1020D00026E046E060E0FC0180810E94EC0E0F915A
:1020E0000895EF92FF920F931F93CF93DF93EC012C
:1020F000E0900B01F0900C018C010F5F1F4F26E068
:1021000046E061E088810E94780E8981DF91CF915D
:102110001F910F91FF90EF9008950F93062F26E0E7
:1021200046E061E0FC0180810E94EC0E0F91089571
:10213000EF92FF920F931F93CF93DF93EC01E09008
:102140000B01F0900C018C010F5F1F4F26E046E061
:1021500062E088810E94780E8981DF91CF911F9182
:102160000F91FF90EF9008950F93062F26E046E021
:1021700062E0FC0180810E94EC0E0F910895AB019A
:102180006AE0FC0180810C94AA0DAB0163E1FC01C3
:1021900080810C94AA0DAB0165E1FC0180810C9457
:1021A000AA0DAB0167E1FC0180810C94AA0D262FDA
:1021B00047E06AE6FC0180810C94B50E21E043E023
:1021C0006AE6FC0180810C94B50E6F71211160628A
:1021D00041116064462F6DE6FC0180810C945C0D1A
:1021E000462F6EE6FC0180810C945C0D5F926F922D
:1021F0007F928F929F92AF92BF92CF92DF92EF9297
:10220000FF920F931F93CF93DF936C014B015A0101
:10221000522EF02E20E040E0652D0E94E510602F48
:10222000C6010E94F010C0E0D0E0612C77247394C6
:10223000CA15DB05A8F5CE014096A816B90618F414
:10224000EA2CEC1A02C080E1E82E8E2D90E093017A
:102250002F1931092817390714F4EF2CE194009154
:102260000B0110910C0194012C0F3D1F4E2D6FE6B8
:10227000F60180810E94BC0DCE0DD11DFE0CCA1549
:10228000DB05B0F6F11001C0539420E040E0652D6D
:10229000C6010E94E5106F2DC6010E94F010C8CF44
:1022A000DF91CF911F910F91FF90EF90DF90CF9032
:1022B000BF90AF909F908F907F906F905F900895A8
:1022C0002F923F924F925F926F927F928F929F9246
:1022D000AF92BF92CF92DF92EF92FF920F931F9334
:1022E000CF93DF9300D000D01F92CDB7DEB75C0153
:1022F0007B836A833A01322E0D83E98220E040E03D
:10230000632D0E94E5106D81C5010E94F010E980E7
:10231000EE2029F080E190E00E945D244C01CC2069
:1023200039F080E190E00E945D248C83292E02C068
:102330001C82212C412C512C4614570408F077C0E4
:10234000C20140966816790618F4D62CD41802C03B
:1023500080E1D82E8D2D90E020E031E04D81241BCE
:1023600031092817390714F4D42ED194EA81FB815E
:10237000E40DF51DCC2059F09C81A92FB22D8A2F98
:10238000891B8D1530F484918D933196F8CFEC83B1
:102390002F2E2C81322D4D2D6FE6D5018C910E9470
:1023A000230DED2CF12CB981BB2351F18114910443
:1023B00039F120E040E0632DC5010E94E5106D81F8
:1023C000C5010E94F01000910B0110910C019401C5
:1023D0004D2D6FE6F50180810E94BC0DA701B4016F
:1023E0008C81922D0E945426892B51F0C4010E94A9
:1023F000F224CC2049F18C81922D0E94F22424C039
:102400004E0C5F1CFD81FD0DFD834614570408F042
:1024100093CFF11101C0339420E040E0632DC5015A
:102420000E94E5106D81C5010E94F01085CF4981A1
:10243000442319F0C4010E94F224CC2039F08C818D
:10244000922D0E94F22402C080E001C081E00F9032
:102450000F900F900F900F90DF91CF911F910F91E0
:10246000FF90EF90DF90CF90BF90AF909F908F90B4
:102470007F906F905F904F903F902F900895CF92F4
:10248000EF920F93CC24C3940E9460110F91EF90B0
:10249000CF9008952F923F924F925F926F927F92CA
:1024A0008F929F92AF92BF92CF92DF92EF92FF9264
:1024B0000F931F93CF93DF931F92CDB7DEB73C01ED
:1024C0004B012A01D22E222339F088E090E00E94AD
:1024D0005D24182FF92E02C010E0F12C212C312C94
:1024E0002414350408F056C0F401E20DF31DC101B7
:1024F00003965C01DD2071F02491F1013196E80D25
:10250000F91D0491F1013296E80DF91DE490E110F6
:102510000DC04BC020810181E280F401E80FF91F5A
:10252000EE2009F452C01E2FFF2E1EC02E2C312C7F
:1025300092E09E1548F4B101812F9F2D29830E94BE
:102540008A25182FF92E2981A12FBF2D80E090E038
:102550008215930548F4F501E80FF91FE80DF91D00
:10256000E491ED930196F4CF2E2C312CC12CEE2466
:10257000E394A101612F7F2DC3010E9460112A0CF9
:102580003B1C8111ADCFDD2061F0812F9F2D0E947A
:10259000F22407C0DD2039F0812F9F2D0E94F22404
:1025A00002C080E017C081E015C0F4E02F0E311C9E
:1025B000F401E80FF91FE491E13029F742E368E301
:1025C000F30180810E945C0D8BCF84E0280E311CCA
:1025D000E081F2CF0F90DF91CF911F910F91FF908B
:1025E000EF90DF90CF90BF90AF909F908F907F90B3
:1025F0006F905F904F903F902F90089521E00C9442
:102600004A12462F60E7FC0180810C945C0D462F36
:1026100061E7FC0180810C945C0D2091AD0230914A
:10262000AE0228173907B9F490916B0280916C02C1
:10263000981789F0E0916B02F0E0E359FD4F80813B
:1026400020916B0230E02F5F3F4F2F733327209391
:102650006B0290E008958FEF9FEF08951F93CF9343
:10266000DF93DC015C962D913C915D97211531053E
:1026700039F481E090E013969C938E9312973DC0BD
:102680005196ED91FC91529750969C915097892FBD
:1026900080951FB75E964C915E9741FB772770F946
:1026A00041FD6095F8944081772311F0492B01C0DA
:1026B00048234083E9012197F1F748E0508160FF0A
:1026C00002C0592B01C058235083E9012197F1F72B
:1026D0006695415099F7772321F090818923808373
:1026E00003C08081982B90831FBF5C968D919C9135
:1026F0005D970197F1F721E030E0C901DF91CF91BB
:102700001F9108952091AD023091AE02281739072C
:1027100071F490916B0280916C02981741F0E091F6
:102720006B02F0E0E359FD4F808190E008958FEF58
:102730009FEF08952091AD023091AE02281739071E
:1027400071F480916C0220916B0290E0805C9F4F4D
:10275000821B910960E470E00E94EE23089580E0FE
:1027600090E008952091AD023091AE02281739070C
:1027700039F48FB7F89410926C0210926B028FBFED
:102780000895E091AD02F091AE02E817F90769F4FF
:10279000A389B4899C918589809589238C93109213
:1027A000AE021092AD0281E0089580E00895CF93CB
:1027B000DF93EC018A8D9B8D892BF1F08091AD0226
:1027C0009091AE028C179D07B9F0009711F00E940E
:1027D000C1138E8D8E7F8E8F10926C0210926B02C1
:1027E000D093AE02C093AD02EB89FC8990818D89B4
:1027F000892B808381E001C080E0DF91CF91089533
:102800001F920F920FB60F9211242F933F934F9365
:102810005F936F937F938F939F93AF93BF93EF9348
:10282000FF93E091AD02F091AE02309709F451C0F0
:10283000968DA685B785858591FF04C09C918923D7
:1028400029F447C09C91892309F043C0A389B48926
:102850009C918589809589238C9386899789019796
:10286000F1F7608D718DA685B785558538E020E03C
:10287000CB010197F1F7822F90E095958795282F4E
:102880004C91452309F02068315091F7868D81FDE8
:10289000209580916C0290E001968F73992730917A
:1028A0006B02381749F0A0916C02B0E0A359BD4FFC
:1028B0002C9380936C0203C0868D8160868F828DFD
:1028C000938D0197F1F7A389B4899C918589892B10
:1028D0008C93FF91EF91BF91AF919F918F917F91D9
:1028E0006F915F914F913F912F910F900FBE0F907D
:1028F0001F90189528E331E0FC01318320830C946C
:10290000C1131F93CF93DF93EC01162F6E8D669545
:10291000617081E06827812F0E948F0C61E0812F18
:102920000E94530C612F70E0FB01E555FF4FE491CD
:10293000E88BFB01E154FF4FE491F0E0EE0FFF1F45
:10294000E352FF4F859194919A8B898BDF91CF91C0
:102950001F9108951F93CF93DF93EC01162F60E032
:10296000812F0E94530C8E8D81FD04C061E0812F68
:102970000E948F0C1C87612F70E0FB01E555FF4F13
:10298000E491ED87FB01E154FF4FE491F0E0EE0F9D
:10299000FF1FED52FF4F859194919F878E87DF91A6
:1029A000CF911F9108951F93CF93DF93EC01162FC2
:1029B0001B821A8288EE93E0A0E0B0E08C839D83B6
:1029C000AE83BF8388E391E0998388831F8A1E8A40
:1029D000198E188E1B8E1A8E1D8E1C8E8E8D8E7FDC
:1029E00020FB81F98E8F642FCE010E948114612F0C
:1029F000CE01DF91CF911F910C94AA14CF93DF9356
:102A0000EC019A01AB011B8E1A8E198E188E1F8A4B
:102A10001E8A60E079E08DE390E00E942424F901B1
:102A20002430310518F0C901039702C081E090E01D
:102A30009D8F8C8F6C85663108F069C0C9019695B1
:102A400087958431910510F0439702C081E090E0B2
:102A50009F8B8E8B369718F0C901059702C081E0D5
:102A600090E0998F888FC901880F991F280F391F0F
:102A700036952795369527952D30310518F02C5031
:102A8000310902C021E030E03B8F2A8F909168002D
:102A9000683050F021E06E3008F420E081E001C0A1
:102AA000880F2A95EAF701C084E0892B809368009B
:102AB0008C85883038F08E3040F0863148F020E048
:102AC00030E008C02DE630E005C02BE630E002C063
:102AD0002CE630E03C8B2B8B883030F491E001C049
:102AE000990F8A95EAF70EC0282F30E08E3018F43F
:102AF0002850310902C02E50310991E001C0990FD0
:102B00002A95EAF79D8B8C8D9D8D0197F1F7CE016B
:102B1000DF91CF910C94D71310921C0381E0809326
:102B20001A031092190361E082E10E948F0C61E0A8
:102B300083E10E948F0CE9EBF0E080818E7F80833F
:102B400080818D7F808388E48093B80085E48093C2
:102B5000BC000895413208F043C090911C039111CC
:102B6000FCCF91E090931C0320931A032FEF209346
:102B7000AF021092F402240F2093F30290931B03F0
:102B800090911B03880F892B80931B03809119035D
:102B9000813061F41092190380911B038093BB0074
:102BA0008091BC0083FDF8CF85EC01C085EE809359
:102BB000BC0080911C038130E1F38091F402841702
:102BC00010F44091F40225EF32E0FB01D9018A2F85
:102BD000821B841718F48D918193F9CF842F089567
:102BE00080E008950F93413208F04AC090911C0391
:102BF0009111FCCF32E030931C0300931A033FEF96
:102C00003093AF021092F4024093F302FB0165EFA0
:102C100072E0DB013A2F361B341718F431913D93E3
:102C2000F9CF10921B0330911B03880F832B8093E5
:102C30001B0380911903813061F410921903809174
:102C40001B038093BB008091BC0083FDF8CF85EC13
:102C500001C085EE8093BC00222321F080911C03EB
:102C60008230D1F38091AF028F3F79F08091AF0233
:102C7000803241F08091AF02803331F094E005C0A2
:102C800091E003C092E001C093E0892F0F91089575
:102C9000613298F420911C03243089F46093D102AE
:102CA000FC0123ED32E0D9018A2F821B861718F42C
:102CB00081918D93F9CF80E0089581E0089582E0BD
:102CC000089585ED8093BC008091BC0084FDFCCF0D
:102CD00010921C03089585EC8093BC0010921C0395
:102CE00008951F920F920FB60F9211242F933F93C6
:102CF0004F935F936F937F938F939F93AF93BF9304
:102D0000EF93FF938091B900887F803609F49EC0CD
:102D100078F5883209F45DC090F4803109F456C02A
:102D200038F4882309F4F5C0883009F44FC0F5C0A1
:102D3000883109F44EC0803209F45FC0EEC080349F
:102D400009F46AC058F4803309F457C0883309F095
:102D5000E4C08093AF020E946B16DFC0803509F497
:102D60004FC0883509F45DC0883409F0D6C0D3C09F
:102D7000883909F4C4C0A8F4883709F467C038F466
:102D8000883609F463C0803709F460C0C6C088384B
:102D900009F4B5C0803909F45FC0803809F0BDC0BE
:102DA0005BC0803B09F483C038F4803A09F466C004
:102DB000883A09F47CC0B1C0803C09F4A4C0883CC6
:102DC00009F4A1C0883B09F487C0A7C080911B0308
:102DD00010C09091F4028091F302981770F5E09181
:102DE000F40281E08E0F8093F402F0E0EB50FD4F8F
:102DF00080818093BB0085EC83C08093AF028BC041
:102E0000E091F40281E08E0F8093F4028091BB0088
:102E1000F0E0EB50FD4F80839091F4028091F3023B
:102E20006BC0E091F40281E08E0F8093F4028091F8
:102E3000BB00F0E0EB50FD4F808380911A038111BD
:102E40006AC081E08093190384EA5EC083E08093C6
:102E50001C031092B002CFCF8091B002803208F0F4
:102E60004EC0E091B00281E08E0F8093B00280915D
:102E7000BB00F0E0EF54FD4F8083BDCF0E946B1686
:102E80008091B002803230F4E091B002F0E0EF5473
:102E9000FD4F10826091B00270E0E0911503F09157
:102EA000160381EB92E009951092B00236C084E0DF
:102EB00080931C031092D2021092D102E09117036A
:102EC000F091180309958091D102811105C081E02C
:102ED0008093D1021092D302E091D20281E08E0F52
:102EE0008093D202F0E0ED52FD4F80818093BB00D1
:102EF0009091D2028091D102981708F47CCF85E896
:102F00008093BC000AC085EC8093BC0010921C0327
:102F100004C01092AF020E946116FF91EF91BF9121
:102F2000AF919F918F917F916F915F914F913F9161
:102F30002F910F900FBE0F901F90189580914D0309
:102F400090E020914E03821B9109089590914E03C9
:102F500080914D03981750F4E92FF0E0E15BFC4FAE
:102F6000208130E09F5F90934E0302C02FEF3FEF30
:102F7000C9010895E0914E0380914D03E81730F4A4
:102F8000F0E0E15BFC4F808190E008958FEF9FEFD0
:102F900008950895CF92DF92EF92FF920F931F93BF
:102FA000CF93DF937C01262F972F8A0180912903ED
:102FB000882391F0C62FD72F6E01C40ED51ECC15D5
:102FC000DD0571F06991D701ED91FC910190F081DF
:102FD000E02DC7010995F3CF642F822F0E94481678
:102FE000C801DF91CF911F910F91FF90EF90DF907B
:102FF000CF900895CF93DF931F92CDB7DEB769834B
:10300000209129032223D1F020912A03203240F07D
:1030100021E030E0FC013383228380E090E015C0A2
:1030200080912B03E82FF0E0E45DFC4F99819083C1
:103030008F5F80932B0380932A0305C061E0CE014C
:1030400001960E94481681E090E00F90DF91CF91A9
:103050000895FC011382128288EE93E0A0E0B0E0B4
:1030600084839583A683B78388E491E091838083EA
:10307000089510924E0310924D0310922B0310925C
:103080002A030C948C1581E08093290360934C03F0
:1030900010922B0310922A0308950F93062F21E01C
:1030A00040912A036CE273E080914C030E94F21578
:1030B00010922B0310922A03109229030F91089566
:1030C0004F925F926F927F92AF92BF92CF92EF92A8
:1030D000FF920F931F93CF93DF935C01F62ED42FB3
:1030E00028013901EE2021F10E944318CE2DC43071
:1030F00008F0C3E0C150C0F0D501ED91FC91B8E0FB
:10310000CB9FC0011124A301920104C0569547959D
:10311000379527958A95D2F7CA01B9010190F081B8
:10312000E02DC5010995E6CF60E0C5010E944D186C
:103130004D2FD13208F040E22C2D6FE473E08F2D3B
:103140000E94AA1510924E0380934D03DF91CF91F8
:103150001F910F91FF90EF90CF90BF90AF907F9015
:103160006F905F904F900895CF92EF920F931F93BF
:10317000C22EE12C00E010E098010E9460181F911F
:103180000F91EF90CF90089521E00C94B41861E076
:103190000C944D188DE193E00C94291881E08093F4
:1031A0006F0308958F929F92AF92BF92CF92EF924A
:1031B0000F931F93CF93DF93CDB7DEB7C059D109DB
:1031C0000FB6F894DEBF0FBECDBF5C010E94C00FEA
:1031D0006EE170E080E090E00E94C70B60E0C50106
:1031E0000E94C70F21E041E060E1C5010E94E510A7
:1031F00066E0C5010E94F01020E040E060E0C501FB
:103200000E94E510C5010E944A10182FC5010E94B6
:103210007110882EC5010E949810982E4FE760E02B
:10322000C5010E94810F60E0C5010E94AB0F48E616
:1032300060E0C5010E94810FC5010E94B90F64E1E1
:1032400070E080E090E00E94C70BEE24E39400E081
:1032500020E049E857E06BEC73E0C5010E943F12A3
:10326000882309F408C240EC50E06BE073E0C5012C
:103270000E94FE12882309F400C263E0C5010E9487
:10328000CE0F62E1C5010E948C0F64E0C5010E946F
:10329000370F61E0C5010E943D0F63E0C5010E9448
:1032A000480F63E0C5010E94530F63E0C5010E940F
:1032B000011360E0C5010E94071360E0C5010E9490
:1032C0004310612FC5010E946610682DC5010E9440
:1032D0008D10692DC5010E94B410812C912CF40130
:1032E000E452FD4FE491A1E8B0E0AC0FBD1FA80D82
:1032F000B11DEC9381E0880D9FEF891A990AE3E0F4
:10330000E81568F7CD57DF4F4881C358D04050E0EB
:103310009A012E5F3F4F90E02817390704F7C12C20
:10332000EE24E394CE57DF4F0881C258D040CF57E8
:10333000DF4F2881C158D04061E870E06C0F7D1FDD
:103340006D5F7F4FC5010E94601180E0F401E4527F
:10335000FD4FE491A1E8B0E0AC0FBD1FA80FB11D77
:10336000EC938F5FFFEF8F1A9F0A843078F3CD576D
:10337000DF4F4881C358D04050E0BA016E5F7F4FA5
:10338000282F30E0621773070CF7C12CEE24E3946A
:10339000CE57DF4F0881C258D040CF57DF4F28812A
:1033A000C158D04061E870E06C0F7D1F6D5F7F4FAA
:1033B000C5010E946011C5010E94B20FC5010E94A3
:1033C000ED0F482FBE016F5F7F4FC5010E940B10AC
:1033D00062E0C5010E94690F6CE9C5010E94750F8A
:1033E00060E5C5010E946F0F60E0C5010E947B0F80
:1033F000C5010E94B20F61E0C5010E94A40F61E007
:10340000C5010E94D710C5010E94DE1080E0F401C2
:10341000E452FD4FE491A1E8B0E0AC0FBD1FA80F4E
:10342000B11DEC938F5F9FEF891A990A843078F36E
:10343000CD57DF4F4881C358D04050E0BA016E5F8E
:103440007F4F282F30E0621773070CF7C12CEE2452
:10345000E394CE57DF4F0881C258D040CF57DF4F9B
:103460002881C158D04061E870E06C0F7D1F6D5F0E
:103470007F4FC5010E94601180E0F401E452FD4FCE
:10348000E491A1E8B0E0AC0FBD1FA80FB11DEC9313
:103490008F5FEFEF8E1A9E0A843078F3CD57DF4F9F
:1034A0004881C358D04050E0BA016E5F7F4F282F4B
:1034B00030E0621773070CF7C12CEE24E394CE576B
:1034C000DF4F0881C258D040CF57DF4F2881C15805
:1034D000D04061E870E06C0F7D1F6D5F7F4FC501CC
:1034E0000E94601180E0F401E452FD4FE491A1E8F4
:1034F000B0E0AC0FBD1FA80FB11DEC938F5FFFEFC5
:103500008F1A9F0A843078F3CD57DF4F4881C35814
:10351000D04050E0BA016E5F7F4F282F30E0621735
:1035200073070CF7C12CEE24E394CE57DF4F0881CC
:10353000C258D040CF57DF4F2881C158D04061E8F2
:1035400070E06C0F7D1F6D5F7F4FC5010E946011A1
:10355000C5010E94ED0F83309105D0F3482FBE01C5
:103560006F5F7F4FC5010E940B1080E0F401E452B1
:10357000FD4FE491A1E8B0E0AC0FBD1FA80FB11D55
:10358000EC938F5F9FEF891A990A843078F3CD57B7
:10359000DF4F4881C358D04050E0BA016E5F7F4F83
:1035A000282F30E0621773070CF7CE57DF4F0881E2
:1035B000C258D040CF57DF4F2881C158D04061E872
:1035C00070E06C0F7D1F6D5F7F4FC5010E94F6108C
:1035D000C5010E94ED0F83309105D0F3482FBE0145
:1035E0006F5F7F4FC5010E940B10F401E452FD4F45
:1035F00080E09491A1E8B0E0AC0FBD1FA80FB11D11
:103600009C938F5F843010F43196F3CFCD57DF4F0A
:103610004881C358D04050E0BA016E5F7F4F282FD9
:1036200030E06217730784F761E870E06C0F7D1F6C
:103630006D5F7F4FC12CEE24E394CE57DF4F08819E
:10364000C258D040CF57DF4F2881C158D040C50164
:103650000E94601160E0C5010E94D7108AE290E0EC
:10366000F50193838283C5010E94B20FC5010E94B8
:10367000920F80E003C081E001C082E0C057DF4FBD
:103680000FB6F894DEBF0FBECDBFDF91CF911F9173
:103690000F91EF90CF90BF90AF909F908F90089533
:1036A000CF93DF93DB01FA01309719F4EC01E88145
:1036B000F981808190E0982F88272181822B1196B3
:1036C0009C938E93848190E0982F88272581822B6C
:1036D00013969C938E931297808590E0982F88275D
:1036E0002185822B15969C938E931497848590E068
:1036F000982F88272585822B17969C938E93169753
:1037000080E0DF91CF910895FF920F931F93CF93A5
:10371000DF93CDB7DEB728970FB6F894DEBF0FBEA4
:10372000CDBF8B01BE016F5F7F4F0E94501BF82EF3
:1037300081114CC069817A81072E000C880B990B8E
:103740000E94392220E030E040E858E30E941D2327
:10375000F80160837183828393836B817C81072E60
:10376000000C880B990B0E94392220E030E040E8E1
:1037700058E30E941D23F801648375838683978331
:103780006D817E81072E000C880B990B0E943922D7
:1037900020E030E040E858E30E941D23F8016087F4
:1037A0007187828793876F817885072E000C880B3D
:1037B000990B0E94392220E030E040E858E30E9453
:1037C0001D23F80164877587868797878F2D289634
:1037D0000FB6F894DEBF0FBECDBFDF91CF911F9122
:1037E0000F91FF9008954F925F926F927F928F9208
:1037F0009F92AF92BF92CF92DF92EF92FF920F9380
:103800001F93CF93DF93CDB7DEB728970FB6F89409
:10381000DEBF0FBECDBF8B01DA011496CD90DD90D7
:10382000ED90FC9017971C964D905D906D907C905C
:103830001F978D909D90AD90BC90139718968D9189
:103840009D910D90BC91A02D89839A83AB83BC83FD
:10385000A3019201C701B6010E941D236D837E83DF
:103860008F83988729813A814B815C81C501B4019E
:103870000E941D239B01AC016D817E818F81988503
:103880000E94AB209B01AC010E94AC20F801608338
:10389000718382839383A7019601C501B4010E94BD
:1038A0001D236D837E838F839887A3019201698195
:1038B0007A818B819C810E941D239B01AC016D81CB
:1038C0007E818F8198850E94AC209B01AC010E9473
:1038D000AC20D80114966D937D938D939C9317978C
:1038E000A5019401C501B4010E941D234B015C0197
:1038F000A7019601C701B6010E941D239B01AC01DF
:10390000C501B4010E94AB206B017C0129813A8181
:103910004B815C81CA01B9010E941D239B01AC014E
:10392000C701B6010E94AB206B017C01A30192018B
:10393000C301B2010E941D239B01AC01C701B60166
:103940000E94AC20F801608771878287938780E0AE
:1039500028960FB6F894DEBF0FBECDBFDF91CF9192
:103960001F910F91FF90EF90DF90CF90BF90AF909D
:103970009F908F907F906F905F904F9008952F92BF
:103980003F924F925F926F927F928F929F92AF92EF
:10399000BF92CF92DF92EF92FF920F931F93CF933C
:1039A000DF9300D000D000D0CDB7DEB71B018A0175
:1039B0003E832D83FA01C080D180E280F380A7018D
:1039C0009601C701B6010E94AC2069837A838B837C
:1039D0009C83F80184809580A680B780A50194011E
:1039E000C501B4010E94AC202B013C01A701960146
:1039F00069817A818B819C810E941D236B017C01EE
:103A0000A5019401C301B2010E941D239B01AC01D9
:103A1000C701B6010E94AC2020E030E040E85FE33F
:103A20000E94AB206B017C01F80120853185428525
:103A30005385C301B2010E941D232B013C01F801F3
:103A4000248535854685578569817A818B819C815E
:103A50000E941D239B01AC01C301B2010E94AB2057
:103A6000A70196010E942B21F1016083718382835B
:103A70009383ED81FE816481758186819781C08405
:103A8000D184E284F3849B01AC010E941D234B018D
:103A90005C01A7019601C701B6010E941D239B018D
:103AA000AC01C501B4010E94AC200E9490239B018F
:103AB000AC01ED81FE8160817181828193810E94E0
:103AC0008F210E945B21F101648375838683978334
:103AD000ED81FE816081718182819381C084D18476
:103AE000E284F3849B01AC010E941D234B015C0125
:103AF000A7019601C701B6010E941D239B01AC01DD
:103B0000C501B4010E94AC200E9490239B01AC012E
:103B1000ED81FE8164817581868197810E948F216C
:103B20000E945B21F101608771878287938780E023
:103B300026960FB6F894DEBF0FBECDBFDF91CF91B2
:103B40001F910F91FF90EF90DF90CF90BF90AF90BB
:103B50009F908F907F906F905F904F903F902F90AD
:103B6000089584E294E00E94330F8AE194E00E9479
:103B7000BF0C20E049E068E08BEF93E00E94D31493
:103B8000E2EAF3E080E090E0A0E8BFE38083918385
:103B9000A283B3831482158216821782108611863F
:103BA000128613861486158616861786ECE9F3E0CE
:103BB000118210821382128215821482E6E9F3E0E8
:103BC000118210821382128215821482E0E9F3E0DE
:103BD000118210821382128215821482E4E8F3E0CB
:103BE0001082118212821382148215821682178229
:103BF000108611861286138608958BEF93E00C943D
:103C00007A140F938DE193E00E94391888E1809334
:103C1000B80040E855E260E070E08BEF93E00E946E
:103C2000FE1426E040E052EC61E070E088EB91E0A9
:103C30000E949F0660EC72E088EB91E00E946208AF
:103C400084E294E00E94D90F62EA72E088EB91E08E
:103C50000E94620884E294E00E943B10811103C03C
:103C60006AE672E002C064E872E088EB91E00E94CC
:103C7000620807E026E045E064E08AE194E00E9403
:103C8000C90C64E472E088EB91E00E94620864E58C
:103C900071E08BEF93E00E9474086AE272E088EBB7
:103CA00091E00E94620862EF71E088EB91E00E946F
:103CB000620888EB91E00E94D905892B31F088EBEE
:103CC00091E00E94F305892BA1F788EB91E00E9417
:103CD000D905892BD1F388EB91E00E94D905892B76
:103CE00031F088EB91E00E94F305892BA1F76EED8E
:103CF00071E088EB91E00E94620884E294E00E9407
:103D0000D2188093F6036CED70E084E294E00E9498
:103D1000C5106CE470E084E294E00E94CB106BEA82
:103D20007FEF84E294E00E94D1106CEF76E084E2B1
:103D300094E00E94BF108091F603811130C06EECB8
:103D400071E088EB91E00E94620861E084E294E017
:103D50000E94D7106FE871E088EB91E00E94620842
:103D600043E050E06EEC78E180E00E94DE0A84E2FD
:103D700094E00E94920F8093F70365E671E088EB70
:103D800091E00E94620881E08093F803809126040C
:103D9000909127049093F5038093F40314C064E496
:103DA00071E088EB91E00E9431084AE050E06091B8
:103DB000F60388EB91E00E94450962E471E088EB2C
:103DC00091E00E94620861E08DE00F910C94530C29
:103DD000CF92DF92EF92FF928BEF93E00E949A13C3
:103DE000892B31F08BEF93E00E940D13892BA1F703
:103DF0008BEF93E00E949A13892BD1F38BEF93E022
:103E00000E949A13892B31F08BEF93E00E940D13DF
:103E1000892BA1F78BEF93E00E940D138093FA0397
:103E2000682F8BEF93E00E9486088BEF93E00E944F
:103E30009A13892BB1F167E671E08BEF93E00E9452
:103E400074088BEF93E00E940D138093FA0387357B
:103E500051F461E08DE00E948F0C64E971E08BEF1A
:103E600093E00E9474088091FA03833551F460E076
:103E70008DE00E948F0C6BE771E08BEF93E00E9466
:103E800074088091FA038F3361F463E871E08BEF7B
:103E900093E00E9474086BE971E08BEF93E00E945D
:103EA00074088091F803882309F450C12091F2032B
:103EB0003091F3038091F4039091F50340916F03E7
:103EC000411103C028173907C8F310926F0384E229
:103ED00094E00E94920F8093F70384E294E00E94A2
:103EE000ED0F9C019093F3038093F2039091F703FD
:103EF00094FD03C02115344061F584E294E00E94F2
:103F0000B20F66E371E088EB91E00E9431086091A6
:103F1000F2037091F3034AE050E088EB91E00E94D5
:103F20004C0965E271E088EB91E00E9431084AE0BB
:103F300050E06091F70388EB91E00E94450966E14B
:103F400071E088EB91E0FF90EF90DF90CF900C94C0
:103F5000620891FFFBC04091F4035091F5038091FA
:103F6000F2039091F3038417950748F484E294E0F8
:103F70000E94ED0F9093F3038093F203ECCF62EB7A
:103F800073E084E294E00E940B108091F203909120
:103F9000F3032091F4033091F503821B930B90936C
:103FA000F3038093F20342EB53E062EA73E084E2AE
:103FB00094E00E94841B42EA53E064E873E084E2E8
:103FC00094E00E94F31B24E833E042EA53E068E700
:103FD00073E084E294E00E94BF1C63EB71E088EB25
:103FE00091E00E94550820E030E044E353E4609102
:103FF00078037091790380917A0390917B030E94FA
:104000001D232BED3FE049E450E40E948F21AB01DA
:10401000BC0122E030E088EB91E00E94370A66EBB9
:1040200071E088EB91E00E94550820E030E044E325
:1040300053E460917C0370917D0380917E039091A5
:104040007F030E941D232BED3FE049E450E40E94D2
:104050008F21AB01BC0140937403509375036093AF
:1040600076037093770322E030E088EB91E00E94C2
:10407000370A66EB71E088EB91E00E94550820E07A
:1040800030E044E353E460918003709181038091B8
:104090008203909183030E941D232BED3FE049E4AE
:1040A00050E40E948F21AB01BC01409370035093F8
:1040B0007103609372037093730322E030E088EB26
:1040C00091E00E94390AC0907403D0907503E0908B
:1040D0007603F090770320E030E040E751E4C70139
:1040E000B6010E94102318165CF464E071E088EBBE
:1040F00091E00E9462088AE194E00E94F90C19C0E4
:1041000020E030E040E751ECC701B6010E948A216F
:1041100087FF0BC061EF70E088EB91E00E946208BE
:104120008AE194E00E940E0D04C08AE194E00E94AE
:10413000E40C6091F90381E068276093F9038DE056
:10414000FF90EF90DF90CF900C948F0CFF90EF904A
:10415000DF90CF9008955058BB27AA270E94C32014
:104160000C94D6220E94C82238F00E94CF2220F060
:1041700039F49F3F19F426F40C949E220EF4E09536
:10418000E7FB0C949822E92F0E94E72258F3BA1714
:10419000620773078407950720F079F4A6F50C945D
:1041A00009230EF4E0950B2EBA2FA02D0B01B901B7
:1041B00090010C01CA01A0011124FF27591B99F09D
:1041C000593F50F4503E68F11A16F040A22F232FA9
:1041D000342F4427585FF3CF469537952795A795F9
:1041E000F0405395C9F77EF41F16BA0B620B730BA0
:1041F000840BBAF09150A1F0FF0FBB1F661F771F11
:10420000881FC2F70EC0BA0F621F731F841F48F4C5
:10421000879577956795B795F7959E3F08F0B0CF4E
:104220009395880F08F09927EE0F97958795089535
:104230000E94C82260F080E891E009F49EEF0E949D
:10424000CF2228F040E851E071F45EEF0CC00C94EE
:104250009E220C940923E92FE0780E94E72240F384
:10426000092E052AB1F3261737074807590738F0F2
:104270000E2E07F8E02569F0E025E0640AC0EF6340
:1042800007F8009407FADB01B9019D01DC01CA01BE
:10429000AD01EF930E94A6210E94D6220E945B21CD
:1042A0005F91552339F02BED3FE049E450FD49EC97
:1042B0000C94AC200895DF93DD27B92FBF7740E839
:1042C0005FE31616170648075B0718F4D92F0E94FC
:1042D00015239F938F937F936F930E94D023E8E6DB
:1042E000F0E00E94A1220E94D6222F913F914F918F
:1042F0005F910E943023DD2351F09058A2EA2AED0D
:104300003FE049EC5FE3D0785D270E94C320DF9156
:104310000C94D6220E94742208F481E008950E9431
:10432000A3210C94D6220E94CF2258F00E94C822CA
:1043300040F029F45F3F29F00C94982251110C941D
:104340000A230C949E220E94E72268F39923B1F37A
:10435000552391F3951B550BBB27AA2762177307AB
:10436000840738F09F5F5F4F220F331F441FAA1F3F
:10437000A9F335D00E2E3AF0E0E832D091505040FB
:10438000E695001CCAF72BD0FE2F29D0660F771FA9
:10439000881FBB1F261737074807AB07B0E809F08F
:1043A000BB0B802DBF01FF2793585F4F3AF09E3F14
:1043B000510578F00C9498220C940A235F3FE4F3A3
:1043C000983ED4F3869577956795B795F7959F5F57
:1043D000C9F7880F911D9695879597F90895E1E0A3
:1043E000660F771F881FBB1F621773078407BA0702
:1043F00020F0621B730B840BBA0BEE1F88F7E0955D
:1044000008950E9408226894B1110C940A2308951B
:104410000E94EF2288F09F5798F0B92F9927B75143
:10442000B0F0E1F0660F771F881F991F1AF0BA9558
:10443000C9F714C0B13091F00E940923B1E008958A
:104440000C940923672F782F8827B85F39F0B93F7C
:10445000CCF3869577956795B395D9F73EF490950B
:104460008095709561957F4F8F4F9F4F0895E89489
:1044700009C097FB3EF490958095709561957F4FAC
:104480008F4F9F4F9923A9F0F92F96E9BB2793955A
:10449000F695879577956795B795F111F8CFFAF46A
:1044A000BB0F11F460FF1BC06F5F7F4F8F4F9F4F9B
:1044B00016C0882311F096E911C0772321F09EE8F9
:1044C000872F762F05C0662371F096E8862F70E05F
:1044D00060E02AF09A95660F771F881FDAF7880F39
:1044E0009695879597F90895990F0008550FAA0B8F
:1044F000E0E8FEEF16161706E807F907C0F01216F7
:104500001306E407F50798F0621B730B840B950BF9
:1045100039F40A2661F0232B242B252B21F408954E
:104520000A2609F4A140A6958FEF811D811D0895EB
:1045300097F99F6780E870E060E008959FEF80EC56
:104540000895DF93CF931F930F93FF92EF92DF9223
:104550007B018C01689406C0DA2EEF010E943023A3
:10456000FE01E894A5912591359145915591A6F3C9
:10457000EF010E94C320FE019701A801DA9469F7B8
:10458000DF90EF90FF900F911F91CF91DF910895F1
:1045900000240A9416161706180609060895002422
:1045A0000A9412161306140605060895092E03949C
:1045B000000C11F4882352F0BB0F40F4BF2B11F410
:1045C00060FF04C06F5F7F4F8F4F9F4F089557FD6F
:1045D0009058440F551F59F05F3F71F04795880F71
:1045E00097FB991F61F09F3F79F087950895121608
:1045F00013061406551FF2CF4695F1DF08C01616B4
:1046000017061806991FF1CF869571056105089464
:104610000895E894BB2766277727CB0197F908957B
:104620000E94742208F48FEF08959B01AC0160E0B2
:1046300070E080E89FE30C948F210E9430230C945B
:10464000D6220E94C82238F00E94CF2220F0952363
:1046500011F00C9498220C949E2211240C940A239D
:104660000E94E72270F3959FC1F3950F50E0551F0C
:10467000629FF001729FBB27F00DB11D639FAA27B7
:10468000F00DB11DAA1F649F6627B00DA11D661F06
:10469000829F2227B00DA11D621F739FB00DA11D27
:1046A000621F839FA00D611D221F749F3327A00DE1
:1046B000611D231F849F600D211D822F762F6A2F7D
:1046C00011249F5750409AF0F1F088234AF0EE0FE2
:1046D000FF1FBB1F661F771F881F91505040A9F70F
:1046E0009E3F510580F00C9498220C940A235F3F62
:1046F000E4F3983ED4F3869577956795B795F7954B
:10470000E7959F5FC1F7FE2B880F911D96958795C2
:1047100097F9089519F416F40C949E220C94D92359
:104720000E94EF22B8F39923C9F3B6F39F57550BB4
:1047300087FF0E94E7230024A0E640EA900180580A
:104740005695979528F4805C660F771F881F20F098
:1047500026173707480730F4621B730B840B202998
:1047600031294A2BA69517940794202531254A27ED
:1047700058F7660F771F881F20F02617370748075E
:1047800030F4620B730B840B200D311D411DA0957D
:1047900081F7B901842F9158880F969587950895D0
:1047A0009B01AC010C941D230E947422880B990B71
:1047B00008959F3F31F0915020F487957795679544
:1047C000B795880F911D9695879597F90895915003
:1047D0005040660F771F881FD2F7089597FB072E6A
:1047E00016F4009407D077FD09D00E94432407FCFB
:1047F00005D03EF4909581959F4F089570956195F1
:104800007F4F0895A1E21A2EAA1BBB1BFD010DC00C
:10481000AA1FBB1FEE1FFF1FA217B307E407F50770
:1048200020F0A21BB30BE40BF50B661F771F881F4C
:10483000991F1A9469F760957095809590959B01E2
:10484000AC01BD01CF010895052E97FB1EF4009425
:104850000E943B2457FD07D00E94022407FC03D08E
:104860004EF40C943B2450954095309521953F4F44
:104870004F4F5F4F089590958095709561957F4F4C
:104880008F4F9F4F0895AA1BBB1B51E107C0AA1F62
:10489000BB1FA617B70710F0A61BB70B881F991FE1
:1048A0005A95A9F780959095BC01CD010895EE0F1A
:1048B000FF1F0590F491E02D0994CF93DF93823090
:1048C000910510F482E090E0E0913904F0913A040F
:1048D00020E030E0C0E0D0E0309711F1408151811C
:1048E00048175907C0F04817590761F4828193812E
:1048F000209719F09B838A832BC090933A0480936E
:10490000390426C02115310519F04217530718F450
:104910009A01BE01DF01EF010280F381E02DDCCFBF
:104920002115310509F1281B390B2430310590F48C
:1049300012968D919C9113976115710521F0FB01E1
:104940009383828304C090933A0480933904FD01D9
:10495000329644C0FD01E20FF31F819391932250E0
:1049600031092D933C933AC020913704309138049B
:10497000232B41F42091020130910301309338043C
:104980002093370420910001309101012115310558
:1049900041F42DB73EB74091040150910501241B0D
:1049A000350BE0913704F0913804E217F307A0F4D7
:1049B0002E1B3F0B2817390778F0AC014E5F5F4F75
:1049C0002417350748F04E0F5F1F5093380440936B
:1049D00037048193919302C0E0E0F0E0CF01DF91D2
:1049E000CF9108950F931F93CF93DF93009709F40E
:1049F0008CC0FC013297138212820091390410910D
:104A00003A040115110581F420813181820F931F31
:104A100020913704309138042817390779F5F0933D
:104A20003804E093370471C0D80140E050E0AE177D
:104A3000BF0750F412962D913C911397AD012115AB
:104A4000310509F1D901F3CF9D01DA0133832283C6
:104A500060817181860F971F8217930769F4EC01BB
:104A600028813981260F371F2E5F3F4F31832083E6
:104A70008A819B8193838283452B29F4F0933A04A6
:104A8000E093390442C01396FC93EE931297ED0124
:104A9000499159919E01240F351FE217F30771F4D4
:104AA00080819181840F951F029611969C938E931D
:104AB0008281938113969C938E931297E0E0F0E0AD
:104AC000D80112968D919C911397009719F0F801D7
:104AD0008C01F6CF8D919C9198012E5F3F4F820FF4
:104AE000931F20913704309138042817390769F44F
:104AF000309729F410923A041092390402C01382BC
:104B000012821093380400933704DF91CF911F91E4
:104B10000F910895A0E0B0E0E0E9F5E20C946E2674
:104B2000EC01009721F4CB010E945D24B8C0FC0188
:104B3000E60FF71F9C0122503109E217F30708F432
:104B4000ACC0D9010D911C91119706171707B0F051
:104B50000530110508F49FC0C80104978617970710
:104B600008F499C002501109061B170B0193119309
:104B70006D937C93CF010E94F2248DC05B01A01A3B
:104B8000B10A4C01800E911EA0913904B0913A04F3
:104B900040E050E0E12CF12C109709F44AC0A81530
:104BA000B905D1F56D907C901197630182E0C80E34
:104BB000D11CCA14DB0480F1A3014A195B096A0104
:104BC00082E0C80ED11C1296BC9012971396AC913D
:104BD000B5E0CB16D10440F0B282A3835183408369
:104BE000D9016D937C930AC00E5F1F4FC301800FE4
:104BF000911FF90191838083EB2DFA2FE114F104C9
:104C000031F0D7011396FC93EE93129744C0F093C2
:104C10003A04E09339043FC08D919C911197481755
:104C2000590708F4AC017D0112960D90BC91A02D9E
:104C3000B3CF809137049091380488159905E1F439
:104C400046175707C8F48091000190910101009721
:104C500041F48DB79EB74091040150910501841B2A
:104C6000950BE817F907C8F4F0933804E09337047C
:104C7000F901718360830FC0CB010E945D247C0128
:104C8000009759F0A801BE010E946126CE010E9442
:104C9000F224C70104C0CE0102C080E090E0CDB78D
:104CA000DEB7EEE00C948A26FB01DC0104C08D9196
:104CB0000190801921F441505040C8F7881B990B8E
:104CC0000895FB01DC0102C001900D92415050405B
:104CD000D8F708952F923F924F925F926F927F92F2
:104CE0008F929F92AF92BF92CF92DF92EF92FF92FC
:104CF0000F931F93CF93DF93CDB7DEB7CA1BDB0BA8
:104D00000FB6F894DEBF0FBECDBF09942A8839884C
:104D100048885F846E847D848C849B84AA84B98453
:104D2000C884DF80EE80FD800C811B81AA81B9815F
:104D3000CE0FD11D0FB6F894DEBF0FBECDBFED0173
:104D4000089515E0CEEAD5E004C0FE010E94572484
:0C4D50002196CF3AD107C9F7F894FFCFA5
:104D5C0000003B042000FFDD0ADD0AE80300000030
:104D6C00005806F107D905F305E5053606000000E5
:104D7C000094070D0A006E616E00696E66006F7616
:104D8C0066002E00000000002E13F1079A130D137D
:104D9C008213B21300000000FA17CA179E17A61749
:104DAC00BA17C91748656C6C6F2066726F6D20411D
:104DBC00726475696E6F0062745F53657269616CC1
:104DCC0020415641494C41424C45004C4544206FD2
:104DDC0066660053656E642027312720746F20743B
:104DEC0075726E204C4544206F6E0053656E6420C6
:104DFC0027322720746F207475726E204C45442026
:084E0C006F6E0079707209005D
:00000001FF
